S012000043656E7472616C696E612E7372656311
S11300000C946B000C9488000C9488000C944006AB
S11300100C9488000C9488000C9488000C9488003C
S11300200C9488000C9488000C9488000C9488002C
S11300300C9488000C9488000C9488000C9488001C
S11300400C9488000C9488000C9488000C9488000C
S11300500C9488004804520457045C046B04430461
S113006076047B047404720470047B044D046604F7
S1130070610408000000BE922449123EABAAAA2AD9
S1130080BECDCCCC4C3E00000080BEABAAAAAA3E9A
S113009000000000BF000000803F000000000008D6
S11300A04178D3BB4387D1133D190E3CC3BD428273
S11300B0AD2B3E68EC8276BED98FE1A93E4C80EF31
S11300C0FFBE01C4FF7F3F00000000007B0A571FF2
S11300D02E3D7D0B7F3F11241FBECFE5D4E0DEBF54
S11300E0CDBF10E0A0E6B0E0EAEBF8E102C0059075
S11300F00D92A43BB107D9F721E0A4EBB0E001C015
S11301001D92AD32B207E1F70E949D030C945B0C83
S11301100C940000F8944F9396980000949A000071
S1130120959A43D0959841D048E060FF949860FD3B
S1130130949A959A3AD0959838D066954A95A9F7A5
S113014048E070FF949870FD949A959A2ED09598F3
S11301502CD076954A95A9F748E080FF949880FDC5
S1130160949A959A22D0959820D086954A95A9F785
S113017048E090FF949890FD949A959A16D095989B
S113018014D096954A95A9F79498959A0ED0959877
S11301900CD0959A0AD0959808D0959A06D095983F
S11301A004D0969A78944F9108953F9338E03A9505
S11301B0F1F73F910895F8943F93C2980000C09AD4
S11301C00000C19A44D0C19848D038E060FFC2987A
S11301D060FDC29AC19A3BD0C1983FD066953A95CA
S11301E0A9F738E070FFC29870FDC29AC19A2FD067
S11301F0C19833D076953A95A9F738E080FFC29834
S113020080FDC29AC19A23D0C19827D086953A9589
S1130210A9F738E090FFC29890FDC29AC19A17D00E
S1130220C1981BD096953A95A9F7C29A0000C19A35
S11302300ED0C19812D0C29810D0C0980ED0C19AD6
S113024006D0C1980AD009D078943F9108954F936D
S113025048E04A95F1F74F9108954F9348E14A9544
S1130260F1F74F910895CF93DF9382B3877782BBE1
S113027081B3886881BB000082E190E00E94DD02C6
S1130280C4EBD0E09983888384E190E00E94DD028E
S11302909B838A8386E190E00E94DD029D838C83A8
S11302A088E190E00E94DD029F838E83DF91CF91ED
S11302B008951F93CF93DF93EC01162F83E00E94E0
S11302C0EE02998388831E821D82E12FF0E0EE0FF7
S11302D0FF1FEC54FF4F208131813B832A83281771
S11302E0390710F481E004C08217930718F48FEFE4
S11302F08C8301C01C82DF91CF911F9108950F93CD
S11303001F93CF93DF93FC0192B3977792BB0000C6
S1130310C585D685209739F18F0183E00E94EE02CE
S11303204C812A813B814F3F39F4A901481B590B69
S1130330CA01939A979804C0821B930B979A939837
S1130340000003973CF482B3877782BB0000F80176
S1130350118609C02D813E812F5F3F4F3E832D833F
S1130360243C394080F7DF91CF911F910F9108957C
S1130370CF93DF931CBE89E683BFCCEBD0E0198218
S113038018828AE190E00E94D90290E09B838A83DC
S11303908BE190E00E94D90290E09D838C838CE1F4
S11303A090E00E94D90290E09F838E838DE190E0DB
S11303B00E94D90290E0998788878EE190E00E949C
S11303C0D90290E09B878A878FE190E00E94D9024E
S11303D090E09D878C8780E290E00E94D90290E0B3
S11303E09F878E8781E290E00E94D90290E0998BEA
S11303F0888B82E290E00E94D90290E09B8B8A8BEA
S113040083E290E00E94D90290E09D8B8C8B84E281
S113041090E00E94D90290E09F8B8E8B85E290E061
S11304200E94D90290E0998F888F86E290E00E9422
S1130430D90290E09B8F8A8F87E290E00E94D902D4
S113044090E09D8F8C8F88E290E00E94D90290E02A
S11304509F8F8E8FBB9ADF91CF910895DC019CB75B
S11304609C93E62FF0E0EE0FFF1FE454FF4F8081D2
S113047011968C931197891710F481E006C0981790
S113048018F012961C9208958FEF12968C9308958B
S1130490DC011D96ED91FC911E97309781F08281CD
S11304A090818F3F11F49F5F01C0915090839081A0
S11304B08181981302C019961C9280818CBF089583
S11304C080FD909A81FD909882FDC49A83FDC49822
S11304D008959098C498889ABC9A8AE00C94600213
S11304E0929A8A9A0895813011F4929801C0929A4E
S11304F00000089588B3887F88BB87B3876087BB73
S11305000895CF92DF92EF92FF920F931F93522F91
S1130510062F10E020E030E0322F212F102F00278B
S113052068017901C82AD701C601A42BBC01CD01F9
S1130530952B1F910F91FF90EF90DF90CF900C942B
S1130540DB0060E070E0CB010C94DB00E82FF0E00E
S1130550E453FF4F84910895CF92DF92EF92FF927C
S11305600F931F93522F062F10E020E030E0322F1C
S1130570212F102F002768017901C82AD701C6014D
S1130580A42BBC01CD01952B1F910F91FF90EF90EF
S1130590DF90CF900C948A0082B38F7882BB969AB6
S11305A081B3806781BB089560E070E0CB010C9457
S11305B08A000C943C0C0C944A0C0C94440C97B197
S11305C09F7397B9662319F097B1692B67B996B1F0
S11305D0987F96B996B1892B86B90895379A36993A
S11305E0FECF97B1907F8F70892B87B92AE080E086
S11305F090E0369A3699FECF44B155B1840F951FD9
S11306003DE03A95F1F70000215099F737986AE0F8
S113061070E00E94120CCB01089560E087E00E9414
S1130620DF020E94CC020E947A020E9469020E94A8
S113063033010E9470020E94B8010C941F0315BA82
S113064084B314BA00000895EF92FF921F93CF93DE
S1130650DF9380EF85BB84B314BA000020E0E0E0B0
S1130660F0E0EE24E394F12CC0E1D0E035B3C7010F
S11306700E2E01C0880F0A94EAF7382B35BB34B329
S1130680382B34BB000040E050E0342FA7EEB3E039
S11306901197F1F700C0000013B3BE01042E01C08E
S11306A0660F0A94EAF7162369F0ABEDB5E01197EB
S11306B0F1F700C0000073B3672321F0161302C0E2
S11306C0320F06C04F5F5F4F44305105F1F630E101
S11306D095B38095982395BB94B3892384BB00007C
S11306E0303131F431962C5F203109F0BFCF0BC08B
S11306F080916000813081F4309361001092600039
S11307008093DC0009C080916000811105C02093B2
S1130710610081E080936000DF91CF911F91FF9091
S1130720EF9008958091DC00882319F08091610096
S113073001C080E11092DC000895CF93DF93CDB720
S1130740DEB769970FB6F894DEBF0FBECDBF0E9427
S11307500D030E94FA050E941D059E012D5E3F4F68
S1130760AE01495E5F4FBE01645F7F4FCE010196CB
S11307700E9432070E9408062B013C010E940806D1
S1130780AB01BC01A12CB12C84E2C82E83E0D82E8D
S1130790E12C04E610E020E030E082E690E00E94E4
S11307A02C05382E0E940806AB01BC01CE014396ED
S11307B05C019EE0C92E97E0D92E08EE13E020E0FC
S11307C030E08EE690E00E942C05882E0E940806F8
S11307D0AB01BC01CE0147965C0128E4C22E22E0A5
S11307E0D22E32E0E32E0AE010E020E030E08FE782
S11307F090E00E942C05F82E0E940806AB01BC0173
S1130800CE010C965C01EFE7CE2EE1E0DE2E0AE08D
S113081010E020E030E081E990E00E942C05982E61
S11308200E940806AB01BC01CE0101965C01F4E212
S1130830CF2EF7E0DF2E00E117E220E030E083EA7C
S113084090E00E942C05E82E61E0832D0E9459055A
S113085061E0882D0E945905C5010E94940785B75F
S11308608F7485BF78940E94BE050E9492038031E4
S113087009F445C090E08F309105E8F5FC01E65D90
S1130880FF4F0C94260CCE0101960E94AA0733C098
S1130890CE0101960E9424082EC0CE0101960E942A
S11308A00E0829C0CE0101960E94570824C0CE012B
S11308B001960E9446081FC0CE0101960E943A0884
S11308C01AC0CE0101960E94B70715C0CE01019649
S11308D00E94EA0710C0CE0101960E94FC070BC0DB
S11308E063E005C060E003C061E001C062E0CE01E6
S11308F001960E946808CE0101960E946C078B85C0
S113090080FF4CC08E7F8B8786FF04C061E08E2DF4
S11309100E9459058B8581FF0EC08D7F8B876F8167
S1130920CE010C960E9459018889882321F061E048
S1130930892D0E9459058B8585FF23C08F7D8B8768
S11309406E818981882319F0660F615001C060E0CF
S1130950CE0147960E942E02898D882391F00E9431
S11309600806AB01BC0148515C4F6F4F7F4F00E05C
S113097010E098018F2D0E94750561E08F2D0E9473
S113098059058981811103C01A860E947302BE0130
S11309906D5E7F4FCE0101960E949F08C301B20194
S11309A00E941406603D774081059105E8F1498174
S11309B04130B1F58B81811109C02E89022E000CC2
S11309C0330B8D8190E02817390714F41A8601C07F
S11309D04A878A850E9473028A81882309F16E8975
S11309E0615121F0603118F06FE001C061E0CE0187
S11309F047960E942E02898D882391F00E94080652
S1130A00AB01BC0148515C4F6F4F7F4F00E010E0D9
S1130A1098018F2D0E94750561E08F2D0E94590564
S1130A200E9408062B013C01F89485B7806485BFB9
S1130A307894889585B78F7B14CFEEEDF0E08FE046
S1130A40DF01982F1D929A95E9F711863F96A1E050
S1130A50E932FA07A9F70895AF92BF92CF92DF92D5
S1130A60EF920F931F93E091DD00E530C8F481E02D
S1130A708E0F8093DD009FE0E99FF0011124E25284
S1130A80FF4F80834183528363837483058316837A
S1130A9027833087E286D486C386B686A58601C0BE
S1130AA080E01F910F91EF90DF90CF90BF90AF90B7
S1130AB00895CF93DF939FEF980F953098F490E0CB
S1130AC001972FE0289FE001299FD00D1124C252E5
S1130AD0DF4F6987613031F40E94080669837A83A5
S1130AE08B839C83DF91CF9108950F931F93CF93B2
S1130AF09FEF980F9530F0F590E00197411551055F
S1130B006105710569F44FE0489FF001499FF00DBC
S1130B101124E252FF4FC181B281A381448104C0F8
S1130B20C42FB52FA62F472F5FE0589FF001599F80
S1130B30F00D1124E252FF4FC183B283A383448397
S1130B40011511052105310529F465815681478177
S1130B50208504C0602F512F422F232F3FE0389F60
S1130B60F001399FF00D1124E252FF4F6583568343
S1130B7047832087CF911F910F910895CF92DF92E1
S1130B80EF92FF920F931F93CF93DF93CEEDD0E0BC
S1130B9002E01985113001F569817A818B819C818C
S1130BA00E941406CD80DE80EF80F8846C157D05EC
S1130BB08E059F0588F00987EB85FC85CE01099594
S1130BC00E94080669837A838B839C838A858823A1
S1130BD011F08985811119872F9681E0C932D807D0
S1130BE0C1F6DF91CF911F910F91FF90EF90DF90AD
S1130BF0CF90089585B5886085BD89B7806889BF21
S1130C0086E084BD89EF83BD85B5836085BD089585
S1130C102FB7F8946091290170912A0180912B01DA
S1130C2090912C012FBF0895CF92DF92EF92FF9203
S1130C300F931F932FB7F894C0902901D0902A01E5
S1130C40E0902B01F0902C012FBF97018601061B29
S1130C50170B280B390BC616D706E806F90618F049
S1130C60C901B80106C0C901B801615071098109FF
S1130C7091091F910F91FF90EF90DF90CF9008950D
S1130C801F920F920FB60F9211248F939F93AF93DD
S1130C90BF938091290190912A01A0912B01B091D9
S1130CA02C010196A11DB11D8093290190932A0165
S1130CB0A0932B01B0932C0186E084BDBF91AF912A
S1130CC09F918F910F900FBE0F901F9018958F9248
S1130CD09F92AF92BF92CF92DF92EF92FF920F93C7
S1130CE01F93CF93DF936B018A01E9010E94EE0207
S1130CF07C01B60180E090E00E947C0A4B015C011B
S1130D00B70180E090E00E947C0A9B01AC0160E0A6
S1130D1070E080E894E40E94D40920E030E040E8E8
S1130D205FE30E9467099B01AC01C501B4010E9405
S1130D30D4096B017C01B80180E090E00E947C0A38
S1130D409B01AC01C701B6010E94D4090E94120B99
S1130D506B017C01BE0180E090E00E947C0A9B0153
S1130D60AC01C701B6010E94D4092FE03FEC4BE56A
S1130D705BE30E9468099B01AC0160E070E080E8DD
S1130D809FE30E94D40923E333E948E853E40E9433
S1130D906709DF91CF911F910F91FF90EF90DF9042
S1130DA0CF90BF90AF909F908F90089526EA3FE038
S1130DB048E958E06CED75E080E090E00E94670639
S1130DC00E94460A862F089521E63FE040E157E25B
S1130DD064E770E481E090E00E9467060E94460A9E
S1130DE0862F089521E63FE040E157E260E57FE089
S1130DF082E090E00E9467060E94460A862F0895CA
S1130E0021E63FE040E157E260E57FE085E090E0E5
S1130E100E9467060E94460A862F0895CF93DF93A7
S1130E20FC01C585D685209761F00E94D6068B8388
S1130E300E94E4068A830E94F20689830E940007C6
S1130E408883DF91CF910895DC011D96ED91FC918B
S1130E501E97309731F019961C9282858F7B8160A2
S1130E6082870895CF93DF93EC018BE0FE0111920A
S1130E708A95E9F787E0FB0111928A95E9F783E007
S1130E80FA0111928A95E9F784E0F90111928A95A1
S1130E90E9F785E0888389E090E00E94D90289839C
S1130EA08AE090E00E94D9028A838BE090E00E945D
S1130EB0D9028B838CE090E00E94D9028E838FE06C
S1130EC090E00E94D9028C8380E190E00E94D902D4
S1130ED08D83DF91CF910895CF93DF93EC016881E7
S1130EE081E190E00E94DB02698189E090E00E9448
S1130EF0DB026A818AE090E00E94DB026B818BE076
S1130F0090E00E94DB026C818FE090E00E94DB02A3
S1130F106D8180E190E00E94DB026E818CE090E0C4
S1130F20DF91CF910C94DB02CF93DF93EC0181E14D
S1130F3090E00E94D902813031F488838A858062EE
S1130F4082608A8701C018828A8581608A87DF91DE
S1130F50CF910895FC018081813029F4108282852B
S1130F608D7A806282878285816082870895CF939B
S1130F70DF93EC018881813021F499819170892774
S1130F80898389818823E9F081E090E00E94D90275
S1130F908A8382E090E00E94D9028B8383E090E010
S1130FA00E94D9028E8386E090E00E94D9028C834D
S1130FB087E090E00E94D9028D838A8582608F7BCE
S1130FC08A8781E088838A85806281608A87DF914D
S1130FD0CF910895FC0111828081813021F49281A6
S1130FE09170892701C081E0828381E080838285BA
S1130FF08062816082870895FC0111828081813042
S113100021F493819170892701C081E0838381E079
S1131010808382858062816082870895FC011182C9
S11310208081813051F484818F5F823208F081E2C3
S11310308483828580618F7B828781E0808382853F
S11310408062816082870895FC01118280818130F1
S113105051F484818150813108F481E18483828553
S113106080618F7B828781E080838285806281605A
S113107082870895FC01928596FB882780F921E0F8
S1131080282720FB96F9916092870895FC0111822C
S11310908081813029F48581883010F48F5F8583C5
S11310A081E0808382858062816082870895FC016B
S11310B011828081813029F48581823010F0815041
S11310C0858381E080838285806281608287089540
S11310D0FC0111828681861721F0668382858260F5
S11310E0828781E08083828580628160828708951F
S11310F01F93CF93DF93EC01862F2A812E7D67FD0A
S113110003C022602A8303C023602A838195843626
S11311103CF09A8190629A8364E60E94040C892FC1
S11311206AE00E94040C192F0E94A6028983812F71
S11311300E94A6028883DF91CF911F910895CF92D8
S1131140DF92EF92FF920F931F93CF93DF93CDB76C
S1131150DEB728970FB6F894DEBF0FBECDBF8C0163
S11311606B01CE0101967C0188E0F70111928A950A
S1131170E9F70E94D4020E94A102F80190818D81B6
S1131180913009F076C090E19F83982F9F77218159
S1131190213029F4892F80618D8388E103C08F7603
S11311A08D8384E18B838D818F7D8D83F801928182
S11311B0913011F480628D838D818F7B8D83F80152
S11311C09381913011F480648D83F801868183309A
S11311D011F480E10BC0811102C080E207C08130AC
S11311E011F480E403C0823011F480E88E8381E03E
S11311F090E0F801058002C0880F991F0A94E2F775
S113120081508C83828586FF0AC0F6016281C70102
S11312100E947808F80182858F7B82871CC0F801C0
S113122084819B819C7D9B83813121F480E78A8327
S11312308BE710C0813221F48EE68A8380E60AC0EF
S11312406AE00E94F80B192F0E94A6028A83812F5C
S11312500E94A602898328854F816E818D810E9418
S1131260AC022C814B816A8189810E94810285E0D4
S11312701DC080688D8328854F816E810E94AC02D9
S1131280F801828586FF11C08F7B8287F601628117
S1131290C7010E94780881E00E9460022C814B8182
S11312A06A8189810E94810203C08AE00E946002EF
S11312B028960FB6F894DEBF0FBECDBFDF91CF9155
S11312C01F910F91FF90EF90DF90CF9008955058A9
S11312D0BB27AA270E947F090C94D00A0E94C20A45
S11312E038F00E94C90A20F039F49F3F19F426F41B
S11312F00C94BF0A0EF4E095E7FB0C94B90AE92FAD
S11313000E94E10A58F3BA17620773078407950726
S113131020F079F4A6F50C94030B0EF4E0950B2E53
S1131320BA2FA02D0B01B90190010C01CA01A00133
S11313301124FF27591B99F0593F50F4503E68F18E
S11313401A16F040A22F232F342F4427585FF3CFCF
S1131350469537952795A795F0405395C9F77EF4A0
S11313601F16BA0B620B730B840BBAF09150A1F0E9
S1131370FF0FBB1F661F771F881FC2F70EC0BA0F6F
S1131380621F731F841F48F4879577956795B795F7
S1131390F7959E3F08F0B0CF9395880F08F09927F2
S11313A0EE0F9795879508950E94E8090C94D00A4A
S11313B00E94C90A58F00E94C20A40F029F45F3F13
S11313C029F00C94B90A51110C94040B0C94BF0A23
S11313D00E94E10A68F39923B1F3552391F3951B15
S11313E0550BBB27AA2762177307840738F09F5F42
S11313F05F4F220F331F441FAA1FA9F335D00E2EAF
S11314003AF0E0E832D091505040E695001CCAF71B
S11314102BD0FE2F29D0660F771F881FBB1F2617DE
S113142037074807AB07B0E809F0BB0B802DBF01B5
S1131430FF2793585F4F3AF09E3F510578F00C9484
S1131440B90A0C94040B5F3FE4F3983ED4F38695F9
S113145077956795B795F7959F5FC9F7880F911DA5
S11314609695879597F90895E1E0660F771F881F91
S1131470BB1F621773078407BA0720F0621B730B44
S1131480840BBA0BEE1F88F7E09508950E944D0A6D
S11314906894B1110C94040B08950E94E90A88F031
S11314A09F5798F0B92F9927B751B0F0E1F0660F24
S11314B0771F881F991F1AF0BA95C9F714C0B13065
S11314C091F00E94030BB1E008950C94030B672F75
S11314D0782F8827B85F39F0B93FCCF38695779594
S11314E06795B395D9F73EF490958095709561957D
S11314F07F4F8F4F9F4F0895E89409C097FB3EF4A8
S113150090958095709561957F4F8F4F9F4F99234C
S1131510A9F0F92F96E9BB279395F69587957795CA
S11315206795B795F111F8CFFAF4BB0F11F460FF8A
S11315301BC06F5F7F4F8F4F9F4F16C0882311F0E2
S113154096E911C0772321F09EE8872F762F05C0F6
S1131550662371F096E8862F70E060E02AF09A9591
S1131560660F771F881FDAF7880F9695879597F986
S1131570089597F99F6780E870E060E008959FEF11
S113158080EC089500240A94161617061806090616
S1131590089500240A9412161306140605060895E5
S11315A0092E0394000C11F4882352F0BB0F40F46D
S11315B0BF2B11F460FF04C06F5F7F4F8F4F9F4FAD
S11315C0089557FD9058440F551F59F05F3F71F02F
S11315D04795880F97FB991F61F09F3F79F0879596
S11315E00895121613061406551FF2CF4695F1DF1F
S11315F008C0161617061806991FF1CF86957105AF
S1131600610508940895E894BB2766277727CB01E2
S113161097F9089516F00C94C30B0C94BF0A6894C0
S11316200C94B90A0E94E90AA8F39923C1F3AEF312
S1131630DF93CF931F930F93FF92C92FDD27882346
S11316402AF02197660F771F881FDAF720E030E031
S113165040E85FEB9FE3883920F0803E38F0219624
S11316608F770E946809E2E7F0E004C00E946809ED
S1131670EFE9F0E00E94D10B8B01BE01EC01FB2EDF
S11316806F5771097595771F880B990B0E947E0A15
S113169028E132E741E35FE30E94690BAF2D980133
S11316A0AE01FF900F911F91CF91DF910E947F09AE
S11316B00C94D00A0E94C20A38F00E94C90A20F091
S11316C0952311F00C94B90A0C94BF0A11240C94BC
S11316D0040B0E94E10A70F3959FC1F3950F50E04B
S11316E0551F629FF001729FBB27F00DB11D639FD0
S11316F0AA27F00DB11DAA1F649F6627B00DA11D76
S1131700661F829F2227B00DA11D621F739FB00D1B
S1131710A11D621F839FA00D611D221F749F33278B
S1131720A00D611D231F849F600D211D822F762F24
S11317306A2F11249F5750409AF0F1F088234AF001
S1131740EE0FFF1FBB1F661F771F881F915050406D
S1131750A9F79E3F510580F00C94B90A0C94040B30
S11317605F3FE4F3983ED4F3869577956795B795F4
S1131770F795E7959F5FC1F7FE2B880F911D96950E
S1131780879597F908959F3F31F0915020F48795FC
S113179077956795B795880F911D9695879597F9D5
S11317A00895DF93CF931F930F93FF92EF92DF92ED
S11317B07B018C01689406C0DA2EEF010E94690B4C
S11317C0FE01E894A5912591359145915591A6F393
S11317D0EF010E947F09FE019701A801DA9469F7DD
S11317E0DF90EF90FF900F911F91CF91DF910895BB
S11317F0991B79E004C0991F961708F0961B881F5F
S11318007A95C9F78095089587FB082E062687FDEB
S1131810819567FD61950E94F80B0EF4919507FC84
S113182081950895AA1BBB1B51E107C0AA1FBB1FCA
S1131830A617B70710F0A61BB70B881F991F5A9558
S1131840A9F780959095BC01CD010895EE0FFF1F77
S11318500590F491E02D0994DC01CB01FC01E199A0
S1131860FECF06C0FFBBEEBBE09A31960DB20D92DF
S113187041505040B8F70895E199FECF9FBB8EBB0D
S1131880E09A99278DB30895A8E1B0E042E050E0D2
S11318900C942E0C262FE199FECF9FBB8EBBE09AB1
S11318A001970DB2021631F02DBB0FB6F894E29AEF
S10D18B0E19A0FBE0895F894FFCFEB
S11318BA01104B65797061645F5461736B00546500
S11318CA6D7053656E736F72735F5461736B004509
S11318DA6C656353706565645265675F5461736BC5
S11318EA00416972446973744D6F746F725F546115
S11318FA736B0045787465726E54656D705F5461DC
S107190A736B0000F7
S9030000FC
