S02B0000646973742F44656275672F70726F64756374696F6E2F556E69742E70726F64756374696F6E2E73723D
S11300000C94FC000C9419010C9419010C94190122
S11300100C9419010C9419010C9419010C941901F4
S11300200C9419010C9464070C9419010C94190193
S11300300C9419010C9419010C9419010C941901D4
S11300400C9419010C9419010C9419010C941901C4
S11300500C9419010C9419010C9419010C941901B4
S11300600C9419010C9419010C9419010C941901A4
S11300700C9419010C9419010C941901A40C9F0CF3
S1130080AE0CA90C9A0C950C8F0C170C890C830CD4
S11300907D0C170C780C730C130C08000000BE9236
S11300A02449123EABAAAA2ABECDCCCC4C3E0000B9
S11300B00080BEABAAAAAA3E00000000BF00000058
S11300C0803F0000000000084178D3BB4387D11370
S11300D03D190E3CC3BD4282AD2B3E68EC8276BE18
S11300E0D98FE1A93E4C80EFFFBE01C4FF7F3F00E2
S11300F00000000000407A10F35A00A0724E180964
S11301000010A5D4E80000E87648170000E40B547A
S1130110020000CA9A3B000000E1F5050000809649
S11301209800000040420F000000A086010000007B
S1130130102700000000E803000000006400000035
S113014000000A00000000000100000000002C76FE
S1130150D888DC674F0823DFC1DFAE59E1B1B79619
S1130160E5E3E453C63AE651997696E8E6C2842676
S1130170EB898C9B62ED407C6FFCEFBC9C9F40F252
S1130180BAA56FA5F490055A2AF75C936B6CF967CE
S11301906DC11BFCE0E40D47FEF520E6B500D0ED93
S11301A0902E0300943577050080841E08000020FB
S11301B04E0A000000C80C333333330F986E128399
S11301C01141EF8D2114893BE65516CFFEE6DB186D
S11301D0D1844B381BF77C1D901DA4BBE424203232
S11301E084725E228100C9F124ECA1E53D277B0ADB
S11301F0571F2E3D7D0B7F3F11241FBECFEFD8E04C
S1130200DEBFCDBF11E0A0E0B1E0E6E2FBE202C058
S113021005900D92AC3BB107D9F722E0ACEBB1E00D
S113022001C01D92AB3BB207E1F70E945C0B0C943A
S113023091150C940000F8944F935C9800005E9A1A
S113024000005D9A43D05D9841D048E060FF5E981D
S113025060FD5E9A5D9A3AD05D9838D066954A956D
S1130260A9F748E070FF5E9870FD5E9A5D9A2ED003
S11302705D982CD076954A95A9F748E080FF5E9862
S113028080FD5E9A5D9A22D05D9820D086954A952D
S1130290A9F748E090FF5E9890FD5E9A5D9A16D0AB
S11302A05D9814D096954A95A9F75E985D9A0ED0FC
S11302B05D980CD05D9A0AD05D9808D05D9A06D0FE
S11302C05D9804D05C9A78944F9108953F9338E0F8
S11302D03A95F1F73F910895F8943F932A980000D6
S11302E0289A0000299A44D0299848D038E060FF21
S11302F02A9860FD2A9A299A3BD029983FD066957E
S11303003A95A9F738E070FF2A9870FD2A9A299A3D
S11303102FD0299833D076953A95A9F738E080FF05
S11303202A9880FD2A9A299A23D0299827D086953D
S11303303A95A9F738E090FF2A9890FD2A9A299ACD
S113034017D029981BD096953A95A9F72A9A0000B8
S1130350299A0ED0299812D02A9810D028980ED015
S1130360299A06D029980AD009D078943F91089503
S11303704F9348E04A95F1F74F9108954F9348E120
S11303804A95F1F74F910895CF93DF9385B18F7517
S113039085B984B1806A84B9000082E190E00E944A
S11303A0FF03CCEBD1E09983888384E190E00E9441
S11303B0FF039B838A8386E190E00E94FF039D8371
S11303C08C8388E190E00E94FF039F838E83DF91FA
S11303D0CF9108951F93CF93DF93EC01162F83E001
S11303E00E941804998388831E821D82E12FF0E005
S11303F0EE0FFF1FE454FE4F208131813B832A839B
S11304002817390770F08217930728F01C82DF91B0
S1130410CF911F9108958FEF8C83DF91CF911F911E
S1130420089581E08C83DF91CF911F9108950F93FC
S11304301F93CF93DF93FC0195B19F7595B900008D
S1130440C585D6852097B1F08F0183E00E941804FA
S11304502C812F3F09F12A813B81821B930B2F9A18
S11304602D98000003975CF485B18F7585B9000061
S1130470F8011186DF91CF911F910F9108958D811D
S11304809E8101969E838D83843C994068F7DF9119
S1130490CF911F910F9108952A813B81A901481B97
S11304A0590BCA012D9A2F980000DCCFCF93DF930C
S11304B017BC14BC15BC84B5836884BD85B5816044
S11304C085BDC4ECD1E0198218828AE190E00E94D3
S11304D0FB0390E09B838A838BE190E00E94FB0303
S11304E090E09D838C838CE190E00E94FB0390E07C
S11304F09F838E838DE190E00E94FB0390E09987B7
S113050088878EE190E00E94FB0390E09B878A87B6
S11305108FE190E00E94FB0390E09D878C8780E24E
S113052090E00E94FB0390E09F878E8781E290E039
S11305300E94FB0390E0998B888B82E290E00E94FA
S1130540FB0390E09B8B8A8B83E290E00E94FB0389
S113055090E09D8B8C8B84E290E00E94FB0390E002
S11305609F8B8E8B85E290E00E94FB0390E0998F35
S1130570888F86E290E00E94FB0390E09B8F8A8F35
S113058087E290E00E94FB0390E09D8F8C8F88E2CD
S113059090E00E94FB0390E09F8F8E8F239ADF915F
S11305A0CF910895DC0197B59C93E62FF0E0EE0F10
S11305B0FF1FEC53FE4F808111968C93119789177E
S11305C048F0981720F48FEF12968C9308951296A2
S11305D01C92089581E012968C930895DC011D9677
S11305E0ED91FC911E97309751F0828190818F3F5D
S11305F061F0915090838181891711F097BD08951E
S113060019961C92908197BDFACF9F5F9083F3CF88
S11306108BB18E778BB98AB181688AB958985F9803
S1130620089580FD589A81FD589882FD5F9A83FD54
S11306305F9808955A9A529A0895813019F05A9AF7
S1130640000008955A98000008959091C2009F7781
S11306509093C200882329F09091C200892B809343
S1130660C2008091C2008F7C8093C200662329F06F
S11306708091C200682B6093C2008091C200877F82
S11306808093C200413029F48091C2008860809335
S1130690C2008091C200897F8093C2008091C10012
S11306A08B7F8093C100222339F02E30A9F08091F2
S11306B0C200282B2093C2008091C0008D7F8093BC
S11306C0C0001092C5008CE08093C4008091C100EA
S11306D088608093C10008958091C10084608093F4
S11306E0C1008091C20086608093C200E5CFFC0106
S11306F09081992399F03DE09A3089F0292F319621
S11307009091C00095FFFCCF9091C1009E7F909383
S1130710C1002093C60090819111EECF089590916D
S1130720C00095FFFCCF8091C1008E7F8093C100F3
S11307303093C6002081E3CF85B1887F85B984B129
S1130740876084B90895CF92DF92EF92FF920F935E
S11307501F93522F062F10E020E030E0322F212F7C
S1130760102F002768017901C82AD701C601A42BDC
S1130770BC01CD01952B1F910F91FF90EF90DF905D
S1130780CF900C946C0160E070E0CB010C946C0190
S1130790E82FF0E0E251FE4F84910895CF92DF926A
S11307A0EF92FF920F931F93522F062F10E020E039
S11307B030E0322F212F102F002768017901C82A39
S11307C0D701C601A42BBC01CD01952B1F910F911C
S11307D0FF90EF90DF90CF900C941B018BB18F783A
S11307E08BB95C9A8AB180678AB9089560E070E039
S11307F0CB010C941B010C943A150C9448150C94E1
S1130800421590917C009F7390937C00662329F09D
S113081090917C00692B60937C0090917A00987F82
S113082090937A0090917A00892B80937A000895AE
S11308308F703AE040E050E090917A009068909395
S11308407A0090917A0096FDFCCF90917C00907F85
S1130850982B90937C0090917A00906490937A0006
S113086090917A0096FDFCCF6091780070917900A8
S113087090917A009F7790937A00460F571F9DE0DE
S11308809A95F1F700003150B9F69A01ADECBCEC41
S11308900E947C0D96958795969587959695879554
S11308A008958F703AE040E050E090917A009068AB
S11308B090937A0090917A0096FDFCCF90917C0001
S11308C0907F982B90937C0090917A009064909301
S11308D07A0090917A0096FDFCCF60917800709137
S11308E0790090917A009F7790937A00460F571F72
S11308F09DE09A95F1F700003150B9F69A01ADECFC
S1130900BCEC0E947C0D9695879596958795969557
S11309108795BC0180E090E00E94A00E9B01AC0191
S113092060E070E080EA95E40E94F80D089526E006
S113093040E060E080E00E94250382E091E00E94B4
S1130940770360E087E00E9401040E94EE030E94A6
S11309509C030E9408030E94C4010E941A030E947F
S113096056020C94B30418B887B117B80000089560
S1130970EF92FF921F93CF93DF9380EF88B987B1F3
S113098017B8000010E0A0E0B0E0EE24E394F12CEE
S1130990E0E1F0E088B1B7010A2E01C0660F0A94C5
S11309A0EAF7862B88B987B1862B87B9000080E0E7
S11309B090E0382FC7EED3E02197F1F700C0000094
S11309C026B1AF01082E01C0440F0A94EAF724238C
S11309D011F501968430910561F730E188B1609595
S11309E0862388B987B1682367B90000303101F5DF
S11309F011961C5F103171F680910001811105C0C0
S1130A001093010181E080930001DF91CF911F9148
S1130A10FF90EF900895CBEDD5E02197F1F700C05A
S1130A20000056B14523A9F22413D3CF310FD6CFFA
S1130A3080910001813049F7309301011092000147
S1130A408093E401DF91CF911F91FF90EF9008957F
S1130A508091E401811104C080E11092E4010895C1
S1130A60809101011092E4010895E6EEF1E08FE037
S1130A70DF01982F1D929A95E9F711863F96A2E01F
S1130A80E133FA07A9F70895AF92BF92CF92DF92AC
S1130A90EF920F931F93E091E501E53000F581E0BB
S1130AA08E0F8093E5019FE0E99FF0011124EA5144
S1130AB0FE4F80834183528363837483058316834B
S1130AC027833087E286D486C386B686A5861F919F
S1130AD00F91EF90DF90CF90BF90AF90089580E09A
S1130AE01F910F91EF90DF90CF90BF90AF9008953A
S1130AF0CF93DF939FEF980F953068F490E00197C0
S1130B002FE0289FE001299FD00D1124CA51DE4F08
S1130B106987613019F0DF91CF9108950E942C0705
S1130B2069837A838B839C83DF91CF9108950F939C
S1130B301F93CF939FEF980F953060F590E0019746
S1130B40411551056105710549F1C42FB52FA62F33
S1130B50472F5FE0589FF001599FF00D1124EA518F
S1130B60FE4FC183B283A38344830115110521057C
S1130B70310509F565815681478120853FE0389F1D
S1130B80F001399FF00D1124EA51FE4F658356831D
S1130B9047832087CF911F910F9108954FE0489F7D
S1130BA0F001499FF00D1124EA51FE4FC181B28139
S1130BB0A3814481CECF602F512F422F232FDECF2C
S1130BC00F931F93CF93C091EF01C130C1F0C09137
S1130BD0FE01C13009F44AC0C0910D02C13009F4CC
S1130BE07DC0C0911C02C13009F4B0C0C0912B0279
S1130BF0C13009F4E3C0CF911F910F910895609122
S1130C00E7017091E8018091E9019091EA010E9465
S1130C1038070091EB011091EC012091ED01309126
S1130C20EE01601771078207930788F282E08093D0
S1130C30EF01E091F101F091F20186EE91E0099566
S1130C400E942C076093E7017093E8018093E90107
S1130C509093EA018091F001882329F08091EF01BB
S1130C60882309F4B4CFC093EF01B1CF6091F601AA
S1130C707091F7018091F8019091F9010E94380771
S1130C800091FA011091FB012091FC013091FD01CA
S1130C90601771078207930708F49ECF82E0809360
S1130CA0FE01E0910002F091010285EF91E00995C7
S1130CB00E942C076093F6017093F7018093F8016A
S1130CC09093F9018091FF01882329F08091FE011E
S1130CD0882309F481CFC093FE017ECF6091050281
S1130CE07091060280910702909108020E943807D1
S1130CF00091090210910A0220910B0230910C021A
S1130D00601771078207930708F46BCF82E0809322
S1130D100D02E0910F02F091100284E092E0099537
S1130D200E942C07609305027093060280930702C9
S1130D309093080280910E02882329F080910D027D
S1130D40882309F44ECFC0930D024BCF6091140257
S1130D507091150280911602909117020E94380733
S1130D60009118021091190220911A0230911B026D
S1130D70601771078207930708F438CF82E08093E5
S1130D801C02E0911E02F0911F0283E192E009959A
S1130D900E942C076093140270931502809316022C
S1130DA09093170280911D02882329F080911C02E0
S1130DB0882309F41BCFC0931C0218CF609123022F
S1130DC07091240280912502909126020E94380796
S1130DD000912702109128022091290230912A02C1
S1130DE0601771078207930708F405CF82E08093A8
S1130DF02B02E0912D02F0912E0282E292E00995FD
S1130E000E942C076093230270932402809325028E
S1130E109093260280912C02882329F080912B0242
S1130E20882309F4E8CEC0932B02E5CEE0EBF0E092
S1130E30808182608083E0E7F0E08081826080834B
S1130E4086E08093B20089EF8093B300E1EBF0E099
S1130E5080818360808308952FB7F8946091310274
S1130E607091320280913302909134022FBF089521
S1130E70CF92DF92EF92FF922FB7F894C090310295
S1130E80D0903202E0903302F09034022FBFA701D9
S1130E909601261B370B480B590BC616D706E806D6
S1130EA0F90658F4CA01B90161507109810991091F
S1130EB0FF90EF90DF90CF900895CA01B901FF90A1
S1130EC0EF90DF90CF9008951F920F920FB60F927C
S1130ED011248F939F93AF93BF938091310290918C
S1130EE03202A0913302B09134020196A11DB11DCA
S1130EF08093310290933202A0933302B093340270
S1130F0086E08093B200BF91AF919F918F910F9033
S1130F100FBE0F901F901895CF93DF93FC01C585EA
S1130F20D685209709F40CC180E00E941804BC0106
S1130F3080E090E00E94A00E9B01AC0160E070E0B4
S1130F4080E894E40E94F80D20E030E040E85FE39C
S1130F500E948B0D9B01AC0160E070E88BEB94E484
S1130F600E94F80D20E030E849E055E40E94F80DB5
S1130F700E94360F20E030E64AE755E40E94F80D5F
S1130F802FE03FEC4BE55BE30E948C0D9B01AC0131
S1130F9060E070E080E89FE30E94F80D23E333E90A
S1130FA048E853E40E948B0D0E946A0E6B8381E033
S1130FB00E941804BC0180E090E00E94A00E9B01F6
S1130FC0AC0160E070E080E894E40E94F80D20E059
S1130FD030E040E85FE30E948B0D9B01AC0160E0D0
S1130FE078EE80E896E40E94F80D20E030E44CE1CD
S1130FF056E40E94F80D0E94360F20E030E146E7E7
S113100055E40E94F80D2FE03FEC4BE55BE30E94B2
S11310108C0D9B01AC0160E070E080E89FE30E94CE
S1131020F80D23E333E948E853E40E948B0D0E9452
S11310306A0E6A8382E00E941804BC0180E090E09A
S11310400E94A00E9B01AC0160E070E080E894E493
S11310500E94F80D20E030E040E85FE30E948B0D31
S11310609B01AC0160E070E085E795E40E94F80D17
S113107020E030E44CE156E40E94F80D0E94360F63
S113108020E030E146E755E40E94F80D2FE03FEC04
S11310904BE55BE30E948C0D9B01AC0160E070E0CA
S11310A080E89FE30E94F80D23E333E948E853E422
S11310B00E948B0D0E946A0E698385E00E941804C9
S11310C0BC0180E090E00E94A00E9B01AC0160E0B6
S11310D070E080E894E40E94F80D20E030E040E8FD
S11310E05FE30E948B0D9B01AC0160E070E085E73B
S11310F095E40E94F80D20E030E44CE156E40E94AF
S1131100F80D0E94360F20E030E146E755E40E94D6
S1131110F80D2FE03FEC4BE55BE30E948C0D9B0147
S1131120AC0160E070E080E89FE30E94F80D23E3E7
S113113033E948E853E40E948B0D0E946A0E6883E9
S1131140DF91CF910895DC011D96ED91FC911E97DE
S1131150309731F019961C9282858F7B816082874B
S11311600895CF93DF93EC018BE0FE0111928A95F1
S1131170E9F787E0FB0111928A95E9F783E0FA0128
S113118011928A95E9F784E0F90111928A95E9F7B9
S113119085E0888389E090E00E94FB0389838AE0EC
S11311A090E00E94FB038A838BE090E00E94FB03A3
S11311B08B838CE090E00E94FB038E838FE090E0B1
S11311C00E94FB038C8380E190E00E94FB038D83EB
S11311D0DF91CF910895CF93DF93EC01688181E192
S11311E090E00E94FD03698189E090E00E94FD0384
S11311F06A818AE090E00E94FD036B818BE090E0BD
S11312000E94FD036C818FE090E00E94FD036D81DC
S113121080E190E00E94FD036E818CE090E0DF911C
S1131220CF910C94FD03CF93DF93EC0181E190E027
S11312300E94FB03813039F018828A8581608A8795
S1131240DF91CF91089588838A85806282608A873E
S11312508A8581608A87DF91CF910895FC0180811E
S1131260813029F4108282858D7A8062828782851A
S1131270816082870895CF93DF93EC0198818981FF
S1131280913041F18823E9F081E090E00E94FB0372
S11312908A8382E090E00E94FB038B8383E090E0EA
S11312A00E94FB038E8386E090E00E94FB038C8304
S11312B087E090E00E94FB038D838A8582608F7BA8
S11312C08A8781E088838A85806281608A87DF914A
S11312D0CF910895817089278983D4CFFC0111822D
S11312E08081813049F081E0828381E0808382853E
S11312F080628160828708959281917089278283B8
S113130081E0808382858062816082870895FC0108
S113131011828081813049F081E0838381E0808380
S11313208285806281608287089593819170892784
S1131330838381E0808382858062816082870895CF
S1131340FC0111828081813039F081E080838285C3
S1131350806281608287089584818F5F823208F081
S113136081E28483828580618F7B828781E08083B0
S113137082858062816082870895FC011182808168
S1131380813039F081E08083828580628160828748
S1131390089584818150813108F481E184838285B8
S11313A080618F7B828781E0808382858062816017
S11313B082870895FC01928596FB882780F921E0B5
S11313C0282720FB96F9916092870895FC011182E9
S11313D08081813039F081E0808382858062816000
S11313E08287089585818830B0F78F5F858381E097
S11313F0808382858062816082870895FC011182E6
S11314008081813039F081E08083828580628160CF
S11314108287089585818230B0F38150858381E08D
S1131420808382858062816082870895FC011182B5
S11314308681861721F0668382858260828781E0B7
S1131440808382858062816082870895EF92FF9213
S11314500F931F93CF93DF93CDB7DEB728970FB6C3
S1131460F894DEBF0FBECDBF8C017B01FE01319627
S113147088E0DF011D928A95E9F70E94F6030E9435
S1131480C303F80180818130E1F08D8180688D8310
S113149028854F816E810E94CE03F801828586FDE6
S11314A0A6C08AE00E94110328960FB6F894DEBF06
S11314B00FBECDBFDF91CF911F910F91FF90EF90A1
S11314C0089580E18F838D81282F2F77918191302A
S11314D009F4D4C08F7694E19B838F7DD801129652
S11314E09C91913009F4C8C08F7B8D83F80193815E
S11314F0913009F4BEC0D80116968C91833009F45A
S1131500B5C08111C0C080E28E8381E090E0F80113
S1131510058002C0880F991F0A94E2F781508C83DA
S1131520828586FF37C0D7011296EC908B818E7D21
S1131530E7FC98C082608B83B3E6BE158CF48062AE
S11315408B8389E2EE2DE802812D11248595859502
S113155085958595E7FC8395F4E68F9FE018112423
S113156087E69E2D9802F12C1124F594F594E7FC5E
S1131570F3948F2D0E94C8038A838E2DAAE0FA9ECD
S1131580801911240E94C8038983F80182858F7B06
S113159082871DC014818B818C7D8B83113109F46A
S11315A080C0113209F474C00DEC109F012D112478
S11315B0069506950695802F0E94C8038A83812F7D
S11315C0BAE00B9F801911240E94C80389832885DF
S11315D04F816E818D810E94CE032C814B816A8163
S11315E089810E94A30385E00E9411035DCF8F7B54
S11315F08287D70112960C918B818E7D07FD4DC099
S113160082608B83043684F080628B8389E20802D3
S1131610812D1124859585958595859507FD83955F
S1131620B4E68B9F0019112417E60102112D112431
S11316301595159507FD1395812F0E94C8038A837C
S1131640802FEAE01E9F801911240E94C803898319
S113165081E00E9411032C814B816A8189810E945F
S1131660A30322CF83608B83E19466CF80E18E83D2
S11316704CCF80648D833FCF806236CF822F8061D0
S113168098E19B832ACF813089F480E48E833DCF17
S11316908EE68A8380E689839ACF83608B83019563
S11316A0B1CF80E78A838BE7898391CF823009F0B9
S11316B02CCF80E88E8329CFCF93DF93CDB7DEB7CD
S11316C0A0970FB6F894DEBF0FBECDBF0E9497045B
S11316D00E9416070E9435059E01275E3F4FAE010A
S11316E0435E5F4FBE01645F7F4FCE0101960E944F
S11316F0B1080E942C072B013C010E942C07AB016E
S1131700BC01A12CB12C88EBC82E84E0D82EE12C8E
S113171004E610E020E030E087E391E00E94440515
S1131720982E0E942C07AB01BC019E01275E3F4FFF
S113173059019CE8C92E97E0D92E08EE13E020E069
S113174030E083E491E00E944405F82E0E942C07C7
S1131750AB01BC01CE014D965C012EEEC22E22E0FF
S1131760D22E32E0E32E0AE010E020E030E084E5FF
S113177091E00E944405382E0E942C07AB01BC0165
S11317809E01245F3F4F5901E7E1CE2EE2E0DE2EB9
S11317900AE010E020E030E086E691E00E94440593
S11317A088A30E942C07AB01BC01CE0101965C0109
S11317B0F3EACF2EF8E0DF2E00E117E220E030E07C
S11317C088E791E00E944405282E61E0892D0E945B
S11317D0780561E08F2D0E947805C5010E941309E8
S11317E083B7817F83BF78949E012D5E3F4F69014B
S11317F0A8E88A2EA1E09A2EB5E3EB2EB2E0FB2EE8
S113180015EAA12E11E0B12E0E94E0050E942805E0
S1131810803189F090E08F30910548F4FC01E25C5E
S1131820FF4F0C94760DCE0101960E943B09CE0128
S113183001960E94EB088B8580FD95C0C301B2011F
S11318400E943807603D77408105910508F440C047
S11318508981813009F4D6C086E00E945104860152
S113186023E042E00E941C108A8D282F082E000CD1
S1131870330B3F938F93898D282F082E000C330B45
S11318803F938F938C8D282F082E000C330B3F939E
S11318908F938B8D282F082E000C330B3F938F933F
S11318A08A851F928F93DF92CF92BF92AF92FF925D
S11318B0EF920E943C1085E392E00E9477030E941D
S11318C02C072B013C010FB6F894DEBF0FBECDBF31
S11318D0F89483B7816083BF7894889583B78E7FAB
S11318E083BF789491CFCE0101960E946E099FCF59
S11318F0CE0101960E94A0099ACF63E0CE01019621
S11319000E94160A94CF60E0CE0101960E94160A46
S11319108ECF61E0CE0101960E94160A88CF62E064
S1131920CE0101960E94160A82CFCE0101960E9432
S11319302E097DCFCE0101960E94870978CFCE0172
S113194001960E94FE0973CFCE0101960E94BD0943
S11319506ECFCE0101960E94DA0969CFCE010196BD
S11319600E94E60964CF8E7F8B8786FB882780F9E7
S11319701F928F938E811F928F938D811F928F93CD
S11319808F811F928F938C811F928F938B811F92D3
S11319908F938A811F928F9389811F928F939F9235
S11319A08F92FF92EF920E943C1085E392E00E9496
S11319B077038B850FB6F894DEBF0FBECDBF86FDCF
S11319C06DC081FD58C085FF11C08B858F7D8B87CD
S11319D06E818981882309F46BC0660F6150CE0142
S11319E04D960E94D2028F8D81116BC0898188230C
S11319F009F45AC0BE01675E7F4FCE0101960E9472
S1131A00260A1CCF9B81911133C04C8D042E000CEF
S1131A10550B2D8130E04217530754F18A8781E03A
S1131A200E941D038A81882309F416CF6C8D6151AD
S1131A3009F45AC0603108F06FE0CE014D960E945F
S1131A40D2028F8D882309F407CF0E942C07AB01A3
S1131A50BC0148515C4F6F4F7F4F00E010E098018C
S1131A60832D0E94970561E0832D0E947805F4CEB2
S1131A701A8680E0D5CF8B858D7F8B876F81CE01D1
S1131A800C960E94EA018889811102C08B859BCF44
S1131A9061E088A10E9478058B8595CF61E0822D55
S1131AA00E9478058B858DCF1A860E941D03A2CFD4
S1131AB060E0CE014D960E94D2028F8D882309F4F6
S1131AC095CF0E942C07AB01BC0148515C4F6F4F6E
S1131AD07F4F00E010E09801832D0E94970561E09C
S1131AE0832D0E94780582CF61E0A7CFEE0FFF1F00
S1131AF00590F491E02D0994A29FB001B39FC00119
S1131B00A39F700D811D1124911DB29F700D811D25
S1131B101124911D08955058BB27AA270E94A30D94
S1131B200C94F40E0E94E60E38F00E94ED0E20F0A4
S1131B3039F49F3F19F426F40C94E30E0EF4E09567
S1131B40E7FB0C94DD0EE92F0E94050F58F3BA173A
S1131B50620773078407950720F079F4A6F50C94BF
S1131B60270F0EF4E0950B2EBA2FA02D0B01B9010F
S1131B7090010C01CA01A0011124FF27591B99F0FF
S1131B80593F50F4503E68F11A16F040A22F232F0B
S1131B90342F4427585FF3CF469537952795A7955B
S1131BA0F0405395C9F77EF41F16BA0B620B730B02
S1131BB0840BBAF09150A1F0FF0FBB1F661F771F73
S1131BC0881FC2F70EC0BA0F621F731F841F48F428
S1131BD0879577956795B795F7959E3F08F0B0CFB1
S1131BE09395880F08F09927EE0F97958795089598
S1131BF00E940C0E0C94F40E0E94ED0E58F00E94FC
S1131C00E60E40F029F45F3F29F00C94DD0E5111EB
S1131C100C94280F0C94E30E0E94050F68F399238B
S1131C20B1F3552391F3951B550BBB27AA276217D4
S1131C307307840738F09F5F5F4F220F331F441FE1
S1131C40AA1FA9F335D00E2E3AF0E0E832D0915015
S1131C505040E695001CCAF72BD0FE2F29D0660F02
S1131C60771F881FBB1F261737074807AB07B0E845
S1131C7009F0BB0B802DBF01FF2793585F4F3AF04B
S1131C809E3F510578F00C94DD0E0C94280F5F3FB5
S1131C90E4F3983ED4F3869577956795B795F795D1
S1131CA09F5FC9F7880F911D9695879597F90895B9
S1131CB0E1E0660F771F881FBB1F62177307840755
S1131CC0BA0720F0621B730B840BBA0BEE1F88F764
S1131CD0E09508950E94710E6894B1110C94280F38
S1131CE008950E940D0F88F09F5798F0B92F9927F7
S1131CF0B751B0F0E1F0660F771F881F991F1AF0F3
S1131D00BA95C9F714C0B13091F00E94270FB1E021
S1131D1008950C94270F672F782F8827B85F39F020
S1131D20B93FCCF3869577956795B395D9F73EF48B
S1131D3090958095709561957F4F8F4F9F4F089533
S1131D40E89409C097FB3EF4909580957095619551
S1131D507F4F8F4F9F4F9923A9F0F92F96E9BB2707
S1131D609395F695879577956795B795F111F8CF83
S1131D70FAF4BB0F11F460FF1BC06F5F7F4F8F4FEE
S1131D809F4F16C0882311F096E911C0772321F0E4
S1131D909EE8872F762F05C0662371F096E8862F7C
S1131DA070E060E02AF09A95660F771F881FDAF7D3
S1131DB0880F9695879597F9089597F99F6780E816
S1131DC070E060E008959FEF80EC089500240A9489
S1131DD01616170618060906089500240A94121602
S1131DE01306140605060895092E0394000C11F435
S1131DF0882352F0BB0F40F4BF2B11F460FF04C0E2
S1131E006F5F7F4F8F4F9F4F089557FD9058440F3A
S1131E10551F59F05F3F71F04795880F97FB991F45
S1131E2061F09F3F79F08795089512161306140602
S1131E30551FF2CF4695F1DF08C01616170618068F
S1131E40991FF1CF86957105610508940895E8946A
S1131E50BB2766277727CB0197F9089516F00C94D2
S1131E60E70F0C94E30E68940C94DD0E0E940D0FA2
S1131E70A8F39923C1F3AEF3DF93CF931F930F938A
S1131E80FF92C92FDD2788232AF02197660F771F39
S1131E90881FDAF720E030E040E85FEB9FE3883901
S1131EA020F0803E38F021968F770E948C0DEAE96D
S1131EB0F0E004C00E948C0DE7ECF0E00E94F50F06
S1131EC08B01BE01EC01FB2E6F5771097595771FCD
S1131ED0880B990B0E94A20E28E132E741E35FE3ED
S1131EE00E948D0FAF2D9801AE01FF900F911F91AD
S1131EF0CF91DF910E94A30D0C94F40E0E94E60E84
S1131F0038F00E94ED0E20F0952311F00C94DD0EB4
S1131F100C94E30E11240C94280F0E94050F70F307
S1131F20959FC1F3950F50E0551F629FF001729F7A
S1131F30BB27F00DB11D639FAA27F00DB11DAA1F89
S1131F40649F6627B00DA11D661F829F2227B00DD6
S1131F50A11D621F739FB00DA11D621F839FA00D61
S1131F60611D221F749F3327A00D611D231F849FB1
S1131F70600D211D822F762F6A2F11249F57504008
S1131F809AF0F1F088234AF0EE0FFF1FBB1F661F83
S1131F90771F881F91505040A9F79E3F510580F04C
S1131FA00C94DD0E0C94280F5F3FE4F3983ED4F3B9
S1131FB0869577956795B795F795E7959F5FC1F7F0
S1131FC0FE2B880F911D9695879597F908959F3F4D
S1131FD031F0915020F4879577956795B795880FE0
S1131FE0911D9695879597F90895DF93CF931F9345
S1131FF00F93FF92EF92DF927B018C01689406C0ED
S1132000DA2EEF010E948D0FFE01E894A59125912F
S1132010359145915591A6F3EF010E94A30DFE0160
S11320209701A801DA9469F7DF90EF90FF900F9180
S11320301F91CF91DF910895EF920F931F93CF9348
S1132040DF93E80147FD02C034E001C034E1042E0F
S1132050000C550B57FF03C0519541955109E32ED0
S1132060022F242FAE010E944812CE01DF91CF919E
S11320701F910F91EF900895AEE0B0E0E2E4F0E13B
S11320800C9468150D891E8986E08C831A83098354
S11320908FEF9FE79E838D83AE01475E5F4F6F890D
S11320A0788DCE0101960E946710EF81F885E00FCC
S11320B0F11F10822E96E4E00C948415AB01BC0150
S11320C08091B7029091B8020E9467100895ABE026
S11320D0B0E0EDE6F0E10C945A156C017B018A0145
S11320E0FC0117821682838181FFCCC1CE01019647
S11320F03C01F6019381F70193FD859193FF819152
S11321007F01882309F4BAC1853239F493FD85919E
S113211093FF81917F01853229F4B60190E00E94FA
S11321209014E7CF912C212C312CFFE1F315D8F03A
S11321308B3279F038F4803279F08332A1F4232D94
S113214020611DC08D3261F0803369F4232D21603C
S113215016C0832D8260382EE32DE4603E2E2AC003
S1132160F32DF8601DC037FC2DC020ED280F2A3058
S113217040F08E32B9F436FC81C1232D2064322E16
S113218019C036FE06C08AE0989E200D1124922EB6
S113219011C0EAE02E9E200D1124222EF32DF062B0
S11321A03F2E08C08C3621F4832D8068382E02C05F
S11321B0883641F4F70193FD859193FF81917F0166
S11321C08111B3CF982F9F7D9554933028F40C5FE1
S11321D01F4F9FE399830DC0833631F0833771F02D
S11321E0833509F059C021C0F801808189830E5FCD
S11321F01F4F88248394912C530113C02801F2E0CB
S11322004F0E511CF801A080B18036FE03C0692D29
S113221070E002C06FEF7FEFC5010E9485144C018E
S11322208201F32DFF773F2E16C0280122E0420ED3
S1132230511CF801A080B18036FE03C0692D70E006
S113224002C06FEF7FEFC5010E947A144C01F32D99
S1132250F0683F2E820133FC1BC0822D90E088166B
S11322609906B0F4B60180E290E00E9490142A949A
S1132270F4CFF50137FC859137FE81915F01B601FA
S113228090E00E94901421102A9421E0821A91086F
S11322908114910471F7E8C0843611F0893641F550
S11322A0F80137FE07C060817181828193810C5FE0
S11322B01F4F08C060817181072E000C880B990B99
S11322C00E5F1F4FF32DFF763F2E97FF09C09095A9
S11322D08095709561957F4F8F4F9F4FF0683F2E8B
S11322E02AE030E0A3010E94CC14882E861845C051
S11322F0853731F4232D2F7EB22E2AE030E025C01D
S1132300932D997FB92E8F36C1F018F4883579F062
S1132310B5C0803719F0883721F0B0C0E92FE061EB
S1132320BE2EB4FE0DC0FB2DF460BF2E09C034FEDA
S11323300AC0292F2660B22E06C028E030E005C06E
S113234020E130E002C020E132E0F801B7FE07C02E
S113235060817181828193810C5F1F4F06C060810F
S1132360718180E090E00E5F1F4FA3010E94CC14A6
S1132370882E8618FB2DFF773F2E36FE0DC0232DA9
S11323802E7FA22E891458F434FE0BC032FC09C0EF
S1132390832D8E7EA82E05C0B82CA32C03C0B82C88
S11323A001C0B92CA4FE0FC0FE01E80DF11D80810F
S11323B0803321F49A2D997EA92E09C0A2FE06C06D
S11323C0B394B39404C08A2D867809F0B394A3FC23
S11323D011C0A0FE06C0B21488F4280C922C9B18DD
S11323E00EC0B21460F4B60180E290E00E94901432
S11323F0B394F7CFB21418F42B1802C0982C212CE4
S1132400A4FE10C0B60180E390E00E949014A2FEE6
S113241017C0A1FC03C088E790E002C088E590E003
S1132420B6010CC08A2D867859F0A1FE02C08BE259
S113243001C080E2A7FC8DE2B60190E00E949014F6
S1132440891438F4B60180E390E00E9490149A94C1
S1132450F7CF8A94F301E80DF11D8081B60190E075
S11324600E9490148110F5CF222009F442CEB601C7
S113247080E290E00E9490142A94F6CFF6018681BF
S1132480978102C08FEF9FEF2B96E2E10C947615B3
S1132490A9E0B0E0EEE4F2E10C9460156A01122FB9
S11324A0B02E2BE3201720F0FF24F394F00E02C08B
S11324B02CE3F22E0F2D27E0AE014F5F5F4F0E94F9
S11324C0A213BC014981842F8970813031F0E1FC71
S11324D006C0E0FE06C090E205C09DE203C09BE298
S11324E001C090E05E2D507143FF3CC0911102C0C9
S11324F083E001C084E0811718F4212F281B01C058
S113250020E051110BC0F601822F30E2882319F02C
S113251031938150FBCFC20ED11C20E0992329F0C6
S1132520D6019C93F60131966F01C6010396E2FE33
S11325300AC03EE4D6013C9341E411964C931197B2
S113254012963C9306C03EE6F601308341E6418391
S11325503283FC01322F40E2332309F442C0419319
S11325603150FACF42FF44C0911102C083E001C050
S113257084E0811718F4212F281B01C020E0511199
S11325800BC0F601822F30E2882319F03193815079
S1132590FBCFC20ED11C20E0992329F0D6019C93D5
S11325A0F60131966F01C6010396E2FE0BC039E4D1
S11325B0D6013C933EE411963C93119736E412966F
S11325C03C9307C039E6F60130833EE6318336E6B4
S11325D03283FC01322F40E2332319F0419331500E
S11325E0FBCFFC01E20FF11D10828EEF9FEFA6C01E
S11325F021E030E0911102C020E030E01616170609
S11326001CF4FB01319602C0E1E0F0E02E0F3F1F05
S1132610BB2021F0EB2DF0E0319602C0E0E0F0E0C9
S11326202E0F3F1FE12FF0E02E173F071CF4121B63
S1132630212F01C020E08E2D887159F4F601822FDC
S113264030E2882319F031938150FBCFC20ED11CA4
S113265020E0992329F0D6019C93F60131966F016D
S113266051110BC0F601822F90E3882319F0919346
S11326708150FBCFC20ED11C20E00F2D060F9A8192
S1132680342F307144FF03C0913309F40150101604
S113269024F4093018F008E001C001E0AB0177FF31
S11326A002C040E050E0FB01E41BF50BA1E0B0E008
S11326B0AC0FBD1FEA0FFB1F8EE2A82E4B01801A40
S11326C091080B2D10E01195019511094F3FBFEFB3
S11326D05B0721F4D601AC9211966D01641775075E
S11326E02CF08416950614F4818101C080E34150D6
S11326F051093196D60111967D014017510724F0F6
S1132700D6018C936701E2CF6417750739F49633C9
S113271020F4953319F4311101C081E3F60180836B
S1132720F701822F90E2882319F091938150FBCF17
S1132730F701E20FF11D108280E090E02996ECE0B1
S11327400C947C15283008F027E03327DA01990F20
S1132750311D87FD916000966105710539F4326081
S11327602E5F3D9330E32A95E1F708959F3F30F0C3
S113277080387105610509F03C5F3C5F3D93913001
S113278008F08068911DDF93CF931F930F93FF92FE
S1132790EF92192F987F9695E92F96959695E90FC4
S11327A0FF27E25BFE4F99273327EE24FF24A7017E
S11327B0E70105900894079428F4360FE71EF81EE5
S11327C0491F511D660F771F881F991F0694A1F793
S11327D00590079428F4E70EF81E491F561FC11DE3
S11327E0770F881F991F661F0694A1F70590079419
S11327F028F4F80E491F561FC71FD11D880F991FB3
S1132800661F771F0694A1F70590079420F4490FDB
S1132810561FC71FD81F990F661F771F881F06945E
S1132820A9F784911095177041F0D695C7955795DF
S11328304795F794E7941A95C1F7E4EFF0E06894AC
S11328401590159135916591959105907FE2739559
S1132850E118F10A430B560BC90BD009C0F7E10C80
S1132860F11E431F561FC91FD01D7EF4703311F48F
S11328708A95E6CFE894015030F0080F0AF4002757
S1132880021708F4202F2395022F7A3328F079E3D6
S11328907D932A95E9F710C07D932A9589F60694CD
S11328A097956795379517951794E118F10A430B97
S11328B0560BC90BD00998F023957E9173957A3302
S11328C008F070E37C932013B8F77E9170617D93D8
S11328D030F0839571E37D9370E32A95E1F7112439
S11328E0EF90FF900F911F91CF91DF91992787FD72
S11328F090950895FC010590615070400110D8F73F
S1132900809590958E0F9F1F0895FC016150704033
S113291001900110D8F7809590958E0F9F1F089510
S11329200F931F93CF93DF93FB01238121FD03C0FA
S11329308FEF9FEF2CC022FF16C046815781248160
S113294035814217530744F4A081B1819D012F5F63
S11329503F4F318320838C93268137812F5F3F4FF4
S11329603783268314C08B01EC01FB010084F185BD
S1132970E02D0995892BE1F6D80116968D919C914D
S11329801797019617969C938E931697CE01DF9115
S1132990CF911F910F910895FA01AA27283051F180
S11329A0203181F1E8946F936E7F6E5F7F4F8F4F7C
S11329B09F4FAF4FB1E03ED0B4E03CD0670F781FDB
S11329C0891F9A1FA11D680F791F8A1F911DA11DC0
S11329D06A0F711D811D911DA11D20D009F46894F9
S11329E03F912AE0269F11243019305D3193DEF6A1
S11329F0CF010895462F4770405D4193B3E00FD057
S1132A00C9F7F6CF462F4F70405D4A3318F0495D41
S1132A1031FD4052419302D0A9F7EACFB4E0A69524
S1132A209795879577956795BA95C9F70097610546
S1132A30710508959B01AC010A2E0694579547959C
S1132A4037952795BA95C9F7620F731F841F951F91
S1132A50A01D0895DC01CB01FC01F999FECF06C04D
S1132A60F2BDE1BDF89A319600B40D924150504048
S1132A70B8F70895F999FECF92BD81BDF89A9927C8
S1132A8080B50895A8E1B0E042E050E00C942C1524
S1132A90262FF999FECF92BD81BDF89A019700B413
S1132AA0021639F01FBA20BD0FB6F894FA9AF99AB3
S1132AB00FBE08952F923F924F925F926F927F9232
S1132AC08F929F92AF92BF92CF92DF92EF92FF923A
S1132AD00F931F93CF93DF93CDB7DEB7CA1BDB0BE6
S1132AE00FB6F894DEBF0FBECDBF09942A8839888B
S1132AF048885F846E847D848C849B84AA84B98492
S1132B00C884DF80EE80FD800C811B81AA81B9819D
S1132B10CE0FD11D0FB6F894DEBF0FBECDBFED01B1
S1092B200895F894FFCFB4
S1132B2601100A3C426F617264496E69743E0A453B
S1132B366C656374726F6E696320412F4320466926
S1132B4661742054656D70726120436F6E74726F88
S1132B566C6C65720A0A004B65797061645F546136
S1132B66736B0054656D7053656E736F72735F5447
S1132B7661736B00456C6563537065656452656784
S1132B865F5461736B00416972446973744D6F7469
S1132B966F725F5461736B0045787465726E546529
S1132BA66D705F5461736B0055537C25647C25649A
S1132BB67C25647C25647C25647C25647C25647C76
S1132BC625647C0A004F537C25737C25647C25642C
S10F2BD67C25647C25647C25647C0A005A
S9030000FC
