S012000043656E7472616C696E612E7372656311
S11300000C94E8000C9405010C9405010C9441082F
S11300100C9405010C9405010C9405010C94050144
S11300200C9405010C9405010C9405010C94050134
S11300300C9405010C9405010C9405010C94050124
S11300400C9405010C9405010C9405010C94050114
S11300500C940501AA05B405B905BE05CD05A50591
S1130060D805DD05D605D405D205DD05AF05C805DF
S1130070C30508000000BE922449123EABAAAA2A76
S1130080BECDCCCC4C3E00000080BEABAAAAAA3E9A
S113009000000000BF000000803F000000000008D6
S11300A04178D3BB4387D1133D190E3CC3BD428273
S11300B0AD2B3E68EC8276BED98FE1A93E4C80EF31
S11300C0FFBE01C4FF7F3F000000000000407A1023
S11300D0F35A00A0724E18090010A5D4E80000E8F5
S11300E07648170000E40B54020000CA9A3B000053
S11300F000E1F505000080969800000040420F00E2
S11301000000A08601000000102700000000E803A2
S1130110000000006400000000000A00000000006D
S11301200100000000002C76D888DC674F0823DF2C
S1130130C1DFAE59E1B1B796E5E3E453C63AE651FF
S1130140997696E8E6C28426EB898C9B62ED407C26
S11301506FFCEFBC9C9F40F2BAA56FA5F490055AC2
S11301602AF75C936B6CF9676DC11BFCE0E40D47E7
S1130170FEF520E6B500D0ED902E0300943577050A
S11301800080841E080000204E0A000000C80C33C2
S11301903333330F986E12831141EF8D2114893B51
S11301A0E65516CFFEE6DB18D1844B381BF77C1DD1
S11301B0901DA4BBE424203284725E228100C9F124
S11301C024ECA1E53D277B0A571F2E3D7D0B7F3F85
S11301D011241FBECFE5D4E0DEBFCDBF12E0A0E600
S11301E0B0E0E2E4F7E202C005900D92A830B10756
S11301F0D9F723E0A8E0B2E001C01D92A632B2070D
S1130200E1F70E94ED040C949F130C940000F89401
S11302104F9396980000949A0000959A43D095982D
S113022041D048E060FF949860FD949A959A3AD042
S1130230959838D066954A95A9F748E070FF949848
S113024070FD949A959A2ED095982CD076954A95CF
S1130250A9F748E080FF949880FD949A959A22D05B
S1130260959820D086954A95A9F748E090FF9498F0
S113027090FD949A959A16D0959814D096954A958F
S1130280A9F79498959A0ED095980CD0959A0AD07F
S1130290959808D0959A06D0959804D0969A789413
S11302A04F9108953F9338E03A95F1F73F910895BF
S11302B0F8943F93C2980000C09A0000C19A44D0B9
S11302C0C19848D038E060FFC29860FDC29AC19AD4
S11302D03BD0C1983FD066953A95A9F738E070FFB6
S11302E0C29870FDC29AC19A2FD0C19833D0769526
S11302F03A95A9F738E080FFC29880FDC29AC19A66
S113030023D0C19827D086953A95A9F738E090FF75
S1130310C29890FDC29AC19A17D0C1981BD09695E5
S11303203A95A9F7C29A0000C19A0ED0C19812D08A
S1130330C29810D0C0980ED0C19A06D0C1980AD0E5
S113034009D078943F9108954F9348E04A95F1F786
S11303504F9108954F9348E14A95F1F74F910895CD
S1130360CF93DF9382B3877782BB81B3886881BBE5
S1130370000082E190E00E94A803C8E0D2E09983E3
S1130380888384E190E00E94A8039B838A8386E1AA
S113039090E00E94A8039D838C8388E190E00E94F2
S11303A0A8039F838E8382E690E0DF91CF910C9423
S11303B020031F93CF93DF93EC01162F83E00E9459
S11303C0BC03998388831E821D82E12FF0E0EE0F27
S11303D0FF1FE85FFD4F208131813B832A8328176B
S11303E0390710F481E004C08217930718F48FEFE3
S11303F08C8301C01C82DF91CF911F9108950F93CC
S11304001F93CF93DF93FC0192B3977792BB0000C5
S1130410C785D089209739F18F0183E00E94BC03FE
S11304204C812A813B814F3F39F4A901481B590B68
S1130430CA01939A979804C0821B930B979A939836
S1130440000003973CF482B3877782BB0000F80175
S1130450138609C02D813E812F5F3F4F3E832D833C
S1130460243C394080F7DF91CF911F910F9108957B
S1130470CF93DF931CBE89E683BFC0E1D2E019822B
S113048018828AE190E00E94A40390E09B838A830F
S11304908BE190E00E94A40390E09D838C838CE127
S11304A090E00E94A40390E09F838E838DE190E00E
S11304B00E94A40390E0998788878EE190E00E94CF
S11304C0A40390E09B878A878FE190E00E94A403B5
S11304D090E09D878C8780E290E00E94A40390E0E6
S11304E09F878E8781E290E00E94A40390E0998B1D
S11304F0888B82E290E00E94A40390E09B8B8A8B1D
S113050083E290E00E94A40390E09D8B8C8B84E2B4
S113051090E00E94A40390E09F8B8E8B85E290E094
S11305200E94A40390E0998F888F86E290E00E9455
S1130530A40390E09B8F8A8F87E290E00E94A4033B
S113054090E09D8F8C8F88E290E00E94A40390E05D
S11305509F8F8E8F8CE690E00E942003BB9ADF91E0
S1130560CF910895DC019CB79C93E62FF0E0EE0F49
S1130570FF1FE05FFD4F808111968C9311978917BF
S113058010F481E006C0981718F012961C92089592
S11305908FEF12968C930895DC011F96ED91FC91D8
S11305A05097309781F0828190818F3F11F49F5F43
S11305B001C09150908390818181981302C01B9651
S11305C01C9280818CBF089580FD909A81FD909843
S11305D082FDC49A83FDC49808959098C498889A1B
S11305E0BC9A8AE00E94E40286E790E00C9420031F
S11305F0929A8A9A81E890E00C942003813011F455
S1130600929801C0929A00000895599810BC9CE0F9
S113061099B9539A862B413009F48860222331F02A
S11306202E3019F4529A866001C0822B806880BDF6
S113063008955D9BFECF509890FD509A8CB9089513
S11306400F931F93CF93DF93FC012081222391F01A
S1130650EC018E018881882369F08A3021F48DE0D1
S113066090E00E9419032196F801808190E00E9495
S11306701903EFCFDF91CF911F910F91089588B3A4
S1130680887F88BB87B3876087BB8CE890E00C9435
S11306902003CF92DF92EF92FF920F931F93522F7A
S11306A0062F10E020E030E0322F212F102F0027FA
S11306B068017901C82AD701C601A42BBC01CD0168
S11306C0952B1F910F91FF90EF90DF90CF900C949A
S11306D0580160E070E0CB010C945801E82FF0E081
S11306E0EA53FE4F84910895CF92DF92EF92FF92E6
S11306F00F931F93522F062F10E020E030E0322F8B
S1130700212F102F002768017901C82AD701C601BB
S1130710A42BBC01CD01952B1F910F91FF90EF905D
S1130720DF90CF900C94070182B38F7882BB969AA6
S113073081B3806781BB86E990E00C94200360E07C
S113074070E0CB010C9407010C9449130C945713DB
S11307500C94511397B19F7397B9662319F097B10D
S1130760692B67B996B1987F96B996B1892B86B9EA
S113077080EA90E00C942003379A3699FECF97B123
S1130780907F8F70892B87B92AE080E090E0369AB9
S11307903699FECF44B155B1840F951F3DE03A958B
S11307A0F1F70000215099F737986AE070E00E9451
S11307B0820BCB0108950E94BC03BC0180E090E051
S11307C00E94B10C9B01AC0160E070E080EA95E40A
S11307D00E94090C089526E041E060E080E00E9458
S11307E005038AEA90E00E94200360E087E00E940B
S11307F0AA030E9494030E943F030E94ED020E94F8
S1130800B0010E94F8020E9438020C94070415BA41
S113081084B314BA000080ED90E00C942003FF929E
S11308200F931F93CF93DF9380EF85BB84B314BAE8
S1130830000020E0E0E0F0E0A1E0B0E000E110E042
S113084035B3CD010E2E01C0880F0A94EAF7382B78
S113085035BB34B3382B34BB000040E050E0C7EE66
S1130860D3E02197F1F700C0000033B3B801042EA0
S113087001C0660F0A94EAF7362371F0CBEDD5E098
S11308802197F1F700C0000073B3672329F03613F2
S113089003C0C42FC20F06C04F5F5F4F44305105E1
S11308A0F1F6C0E195B38095982395BB94B3892361
S11308B084BB0000C03131F431962C5F203109F043
S11308C0BFCF0BC080916000813089F4C093610078
S11308D01092600080933A020AC0809160008111F6
S11308E06BC02093610081E08093600065C0C111FA
S11308F003C06BED70E03BC0C13019F461EE70E0F1
S113090036C0C23019F468EE70E031C0C33019F457
S11309106FEE70E02CC0C43019F463EF70E027C0B0
S1130920C53019F468EF70E022C0C63019F461E0F4
S113093071E01DC0C83019F46CEF70E018C0C93004
S113094019F466E071E013C0CA3019F46BE071E089
S11309500EC0CC3019F461E171E009C0CD3019F456
S113096067E171E004C0CE3031F46BE171E080E303
S113097092E00E944D0E80E392E09F938F931F922A
S1130980CF9380E291E09F938F9386EA92E09F93C6
S11309908F930E94540E8DB79EB708960FB6F894A5
S11309A09EBF0FBE8DBF86EA92E0DF91CF911F916B
S11309B00F91FF900C942003DF91CF911F910F9121
S11309C0FF90089580913A02882319F08091610084
S11309D001C080E110923A020895CF93DF93CDB71E
S11309E0DEB7A0970FB6F894DEBF0FBECDBF0E944E
S11309F0EB030E94F8070E94E4069E01275E3F4F26
S1130A00AE01435E5F4FBE01645F7F4FCE0101962E
S1130A100E9433090E9409082B013C010E94090825
S1130A20AB01BC01A12CB12C8FE0C82E84E0D82EE0
S1130A30E12C04E610E020E030E088E391E00E943D
S1130A40F606282E0E940908AB01BC019E01275E10
S1130A503F4F59019FE0C92E99E0D92E08EE13E0CB
S1130A6020E030E084E491E00E94F606382E0E94F3
S1130A700908AB01BC01CE014D965C012CECC22EE1
S1130A8022E0D22E32E0E32E0AE010E020E030E053
S1130A9085E591E00E94F606F82E0E940908AB0154
S1130AA0BC019E01245F3F4F5901EFEFCE2EE1E0E0
S1130AB0DE2E0AE010E020E030E087E691E00E94BC
S1130AC0F60688A30E940908AB01BC01CE01019679
S1130AD05C01F5E2CF2EF9E0DF2E00E117E220E021
S1130AE030E089E791E00E94F606E82E61E0822D6D
S1130AF00E94570761E0832D0E945707C5010E9499
S1130B00950985B78F7485BF7894A9E88A2EA1E0EA
S1130B109A2EB6EACB2EB2E0DB2E5E0193E1A90E4B
S1130B20B11C16EA212E11E0312E0E94BC070E944E
S1130B30E204803109F445C090E08F309105E8F576
S1130B40FC01E65DFF4F0C94960BCE0101960E94CA
S1130B50AB0933C0CE0101960E94250A2EC0CE01F6
S1130B6001960E940F0A29C0CE0101960E94580ADC
S1130B7024C0CE0101960E94470A1FC0CE010196EF
S1130B800E943B0A1AC0CE0101960E94B80915C002
S1130B90CE0101960E94EB0910C0CE0101960E947D
S1130BA0FD090BC063E005C060E003C061E001C063
S1130BB062E0CE0101960E94690ACE0101960E946C
S1130BC06D098B8580FF76C08E7F8B8786FB882797
S1130BD080F91F928F938E811F928F938D811F9224
S1130BE08F938F811F928F938C811F928F938B8110
S1130BF01F928F938A811F928F9389811F928F9363
S1130C009F928F92DF92CF920E94540E86EA92E0D6
S1130C100E9420038B850FB6F894DEBF0FBECDBFB4
S1130C2086FF04C061E08E2D0E9457078B8581FFEB
S1130C300EC08D7F8B876F81CE010C960E94D901E7
S1130C408889882321F061E088A10E9457078B8559
S1130C5085FF23C08F7D8B876E818981882319F05E
S1130C60660F615001C060E0CE014D960E94B20251
S1130C708F8D882391F00E940908AB01BC01485173
S1130C805C4F6F4F7F4F00E010E098018F2D0E9462
S1130C90730761E08F2D0E9457078981811103C07A
S1130CA01A860E94FE02BE01675E7F4FCE01019646
S1130CB00E94A00AC301B2010E941508603D77405A
S1130CC08105910508F475C049814130B1F58B81E6
S1130CD0811109C02C8D022E000C330B8D8190E004
S1130CE02817390714F41A8601C04A878A850E9496
S1130CF0FE028A81882309F16C8D615121F06031F3
S1130D0018F06FE001C061E0CE014D960E94B2027E
S1130D108F8D882391F00E940908AB01BC014851D2
S1130D205C4F6F4F7F4F00E010E098018F2D0E94C1
S1130D30730761E08F2D0E94570786E00E94DB0352
S1130D40850123E042E00E942D0E8A8D282F082E73
S1130D50000C330B3F938F93898D282F082E000CA2
S1130D60330B3F938F938C8D282F082E000C330B5D
S1130D703F938F938B8D282F082E000C330B3F93BA
S1130D808F938A851F928F93BF92AF923F922F9237
S1130D90DF92CF920E94540E86EA92E00E942003D2
S1130DA00E9409082B013C010FB6F894DEBF0FBE68
S1130DB0CDBFF89485B7806485BF7894889585B74E
S1130DC08F7B85BF7894B1CEECE3F2E081E1DF0163
S1130DD0982F1D929A95E9F713867196A2E0E23A4C
S1130DE0FA07A9F78DEB91E00C9420034F925F92E0
S1130DF06F927F92AF92BF92CF92DF92EF920F9356
S1130E001F93CF93DF93C0913B02C63008F040C0DC
S1130E102801390121E02C0F20933B0231E1C39FCB
S1130E20E0011124C45CDD4F28834B835C836D8314
S1130E307E834F82588669867A86EC86DE86CD86E6
S1130E40B88AAF8689839A83DF93CF933B851F92B9
S1130E503F931F92EF929F938F931F922F9387EC50
S1130E6091E09F938F9386EA92E09F938F930E94E1
S1130E70540E86EA92E00E94200388812DB73EB783
S1130E80225F3F4F0FB6F8943EBF0FBE2DBF01C087
S1130E9080E0DF91CF911F910F91EF90DF90CF9081
S1130EA0BF90AF907F906F905F904F900895CF93D5
S1130EB0DF939FEF980F963098F490E0019721E12B
S1130EC0289FE001299FD00D1124C45CDD4F6B875E
S1130ED0613031F40E9409086B837C838D839E8387
S1130EE0DF91CF9108950F931F93CF939FEF980FA6
S1130EF09630F0F590E001974115510561057105B3
S1130F0069F441E1489FF001499FF00D1124E45C2C
S1130F10FD4FC381B481A581468104C0C42FB52F80
S1130F20A62F472F51E1589FF001599FF00D11242E
S1130F30E45CFD4FC383B483A58346830115110587
S1130F402105310529F4678150854185228504C036
S1130F50602F512F422F232F31E1389FF001399F09
S1130F60F00D1124E45CFD4F67835087418722878D
S1130F70CF911F910F910895CF92DF92EF92FF923C
S1130F800F931F93CF93DF93CCE3D2E002E01B8552
S1130F90113001F56B817C818D819E810E94150841
S1130FA0CF80D884E984FA846C157D058E059F056D
S1130FB088F00B87ED85FE85CE0109950E9409080E
S1130FC06B837C838D839E838C85882311F08B8532
S1130FD081111B87619682E0C23AD807C1F6DF917E
S1130FE0CF911F910F91FF90EF90DF90CF900895D4
S1130FF085B5886085BD89B7806889BF86E084BD72
S113100089EF83BD85B5836085BD8DEF91E00C9438
S113101020032FB7F8946091A2027091A3028091EB
S1131020A4029091A5022FBF0895CF92DF92EF9270
S1131030FF920F931F932FB7F894C090A202D09001
S1131040A302E090A402F090A5022FBF97018601AD
S1131050061B170B280B390BC616D706E806F9062C
S113106018F0C901B80106C0C901B801615071097D
S1131070810991091F910F91FF90EF90DF90CF901C
S113108008951F920F920FB60F9211248F939F937E
S1131090AF93BF938091A2029091A302A091A40266
S11310A0B091A5020196A11DB11D8093A202909357
S11310B0A302A093A402B093A50286E084BDBF91CD
S11310C0AF919F918F910F900FBE0F901F90189525
S11310D08F929F92AF92BF92CF92DF92EF92FF9244
S11310E00F931F93CF93DF936B018A01E9010E9451
S11310F0BC037C01B60180E090E00E94B10C4B017E
S11311005C01B70180E090E00E94B10C9B01AC014E
S113111060E070E080E894E40E94090C20E030E094
S113112040E85FE30E949C0B9B01AC01C501B40144
S11311300E94090C6B017C01B80180E090E00E94E0
S1131140B10C9B01AC01C701B6010E94090C0E94BD
S1131150470D6B017C01BE0180E090E00E94B10C60
S11311609B01AC01C701B6010E94090C2FE03FECC2
S11311704BE55BE30E949D0B9B01AC0160E070E0DA
S113118080E89FE30E94090C23E333E948E853E431
S11311900E949C0BDF91CF911F910F91FF90EF90D4
S11311A0DF90CF90BF90AF909F908F90089526EAE4
S11311B03FE048E958E06CED75E080E090E00E9483
S11311C068080E947B0C862F089521E63FE040E1E9
S11311D057E264E770E481E090E00E9468080E94AE
S11311E07B0C862F089521E63FE040E157E260E55D
S11311F07FE082E090E00E9468080E947B0C862FCA
S1131200089521E63FE040E157E260E57FE085E0B4
S113121090E00E9468080E947B0C862F0895CF936B
S1131220DF93FC01C785D089209761F00E94D7081D
S11312308B830E94E5088A830E94F30889830E94B5
S113124001098883DF91CF910895DC011F96ED9108
S1131250FC915097309731F01B961C9282858F7BBE
S1131260816082870895CF93DF93EC018BE0FE01C8
S113127011928A95E9F787E0FB0111928A95E9F7C3
S113128083E0FA0111928A95E9F784E0F901119259
S11312908A95E9F785E0888389E090E00E94A403B9
S11312A089838AE090E00E94A4038A838BE090E023
S11312B00E94A4038B838CE090E00E94A4038E839D
S11312C08FE090E00E94A4038C8380E190E00E9470
S11312D0A4038D83DF91CF910895CF93DF93EC0125
S11312E0688181E190E00E94A603698189E090E031
S11312F00E94A6036A818AE090E00E94A6036B81A3
S11313008BE090E00E94A6036C818FE090E00E9445
S1131310A6036D8180E190E00E94A6036E818CE0BB
S113132090E0DF91CF910C94A603CF93DF93EC016F
S113133081E190E00E94A403813031F488838A859E
S1131340806282608A8701C018828A8581608A8768
S1131350DF91CF910895FC018081813029F41082BE
S113136082858D7A806282878285816082870895F2
S1131370CF93DF93EC018881813021F499819170BE
S11313808927898389818823E9F081E090E00E949C
S1131390A4038A8382E090E00E94A4038B8383E009
S11313A090E00E94A4038E8386E090E00E94A40350
S11313B08C8387E090E00E94A4038D838A858260F9
S11313C08F7B8A8781E088838A85806281608A87AF
S11313D0DF91CF910895FC0111828081813021F445
S11313E092819170892701C081E0828381E08083AA
S11313F082858062816082870895FC0111828081E8
S1131400813021F493819170892701C081E0838325
S113141081E0808382858062816082870895FC01F7
S113142011828081813051F484818F5F823208F08F
S113143081E28483828580618F7B828781E08083DF
S113144082858062816082870895FC011182808197
S1131450813051F484818150813108F481E18483A5
S1131460828580618F7B828781E080838285806230
S1131470816082870895FC01928596FB882780F914
S113148021E0282720FB96F9916092870895FC01BA
S113149011828081813029F48581883010F48F5F36
S11314A0858381E08083828580628160828708955C
S11314B0FC0111828081813029F48581823010F011
S11314C08150858381E08083828580628160828708
S11314D00895FC0111828681861721F06683828536
S11314E08260828781E080838285806281608287D6
S11314F008951F93CF93DF93EC01862F2A812E7DCD
S113150067FD03C022602A8303C023602A83819578
S113151084363CF09A8190629A8364E60E94740B4C
S1131520892F6AE00E94740B192F0E946E0389832D
S1131530812F0E946E038883DF91CF911F910895BC
S1131540CF92DF92EF92FF920F931F93CF93DF938B
S1131550CDB7DEB728970FB6F894DEBF0FBECDBF68
S11315608C016B01CE0101967C0188E0F701119298
S11315708A95E9F70E949F030E946903F80190810C
S11315808D81913009F076C090E19F83982F9F77E9
S11315902181213029F4892F80618D8388E103C062
S11315A08F768D8384E18B838D818F7D8D83F8018C
S11315B09281913011F480628D838D818F7B8D8334
S11315C0F8019381913011F480648D83F801868150
S11315D0833011F480E10BC0811102C080E207C0A6
S11315E0813011F480E403C0823011F480E88E83EA
S11315F081E090E0F801058002C0880F991F0A94E9
S1131600E2F781508C83828586FF0AC0F6016281ED
S1131610C7010E94790AF80182858F7B82871CC0EA
S1131620F80184819B819C7D9B83813121F480E737
S11316308A838BE710C0813221F48EE68A8380E6A8
S11316400AC06AE00E94680B192F0E946E038A8305
S1131650812F0E946E03898328854F816E818D813D
S11316600E9474032C814B816A8189810E94490301
S113167085E01DC080688D8328854F816E810E941E
S11316807403F801828586FF11C08F7B8287F6017F
S11316906281C7010E94790A81E00E94E4022C81E0
S11316A04B816A8189810E94490303C08AE00E94B8
S11316B0E40228960FB6F894DEBF0FBECDBFDF91CB
S11316C0CF911F910F91FF90EF90DF90CF900895ED
S11316D0991B79E004C0991F961708F0961B881F80
S11316E07A95C9F78095089587FB082E062687FD0D
S11316F0819567FD61950E94680B0EF4919507FC36
S113170081950895AA1BBB1B51E107C0AA1FBB1FEB
S1131710A617B70710F0A61BB70B881F991F5A9579
S1131720A9F780959095BC01CD010895EE0FFF1F98
S11317300590F491E02D09945058BB27AA270E94E4
S1131740B40B0C94050D0E94F70C38F00E94FE0CAB
S113175020F039F49F3F19F426F40C94F40C0EF4A1
S1131760E095E7FB0C94EE0CE92F0E94160D58F35C
S1131770BA17620773078407950720F079F4A6F572
S11317800C94380D0EF4E0950B2EBA2FA02D0B01FE
S1131790B90190010C01CA01A0011124FF27591BB2
S11317A099F0593F50F4503E68F11A16F040A22FB8
S11317B0232F342F4427585FF3CF46953795279529
S11317C0A795F0405395C9F77EF41F16BA0B620B28
S11317D0730B840BBAF09150A1F0FF0FBB1F661F6F
S11317E0771F881FC2F70EC0BA0F621F731F841FB2
S11317F048F4879577956795B795F7959E3F08F0D8
S1131800B0CF9395880F08F09927EE0F9795879599
S113181008950E941D0C0C94050D0E94FE0C58F0B6
S11318200E94F70C40F029F45F3F29F00C94EE0C71
S113183051110C94390D0C94F40C0E94160D68F39C
S11318409923B1F3552391F3951B550BBB27AA2775
S113185062177307840738F09F5F5F4F220F331FAF
S1131860441FAA1FA9F335D00E2E3AF0E0E832D077
S113187091505040E695001CCAF72BD0FE2F29D07A
S1131880660F771F881FBB1F261737074807AB074C
S1131890B0E809F0BB0B802DBF01FF2793585F4FC1
S11318A03AF09E3F510578F00C94EE0C0C94390DEF
S11318B05F3FE4F3983ED4F3869577956795B795A3
S11318C0F7959F5FC9F7880F911D9695879597F9AE
S11318D00895E1E0660F771F881FBB1F6217730727
S11318E08407BA0720F0621B730B840BBA0BEE1F3C
S11318F088F7E09508950E94820C6894B1110C94C5
S1131900390D08950E941E0D88F09F5798F0B92F45
S11319109927B751B0F0E1F0660F771F881F991F20
S11319201AF0BA95C9F714C0B13091F00E94380D7D
S1131930B1E008950C94380D672F782F8827B85F8D
S113194039F0B93FCCF3869577956795B395D9F778
S11319503EF490958095709561957F4F8F4F9F4F82
S11319600895E89409C097FB3EF49095809570958E
S113197061957F4F8F4F9F4F9923A9F0F92F96E9D7
S1131980BB279395F695879577956795B795F1114C
S1131990F8CFFAF4BB0F11F460FF1BC06F5F7F4FE9
S11319A08F4F9F4F16C0882311F096E911C07723FB
S11319B021F09EE8872F762F05C0662371F096E804
S11319C0862F70E060E02AF09A95660F771F881FD3
S11319D0DAF7880F9695879597F9089597F99F6791
S11319E080E870E060E008959FEF80EC08950024A3
S11319F00A941616170618060906089500240A9470
S1131A0012161306140605060895092E0394000CF5
S1131A1011F4882352F0BB0F40F4BF2B11F460FF84
S1131A2004C06F5F7F4F8F4F9F4F089557FD9058AD
S1131A30440F551F59F05F3F71F04795880F97FB8E
S1131A40991F61F09F3F79F0879508951216130648
S1131A501406551FF2CF4695F1DF08C01616170677
S1131A601806991FF1CF86957105610508940895AC
S1131A70E894BB2766277727CB0197F9089516F0DA
S1131A800C94F80D0C94F40C68940C94EE0C0E94D5
S1131A901E0DA8F39923C1F3AEF3DF93CF931F93E5
S1131AA00F93FF92C92FDD2788232AF02197660F11
S1131AB0771F881FDAF720E030E040E85FEB9FE310
S1131AC0883920F0803E38F021968F770E949D0B54
S1131AD0E2E7F0E004C00E949D0BEFE9F0E00E9411
S1131AE0060E8B01BE01EC01FB2E6F577109759533
S1131AF0771F880B990B0E94B30C28E132E741E36E
S1131B005FE30E949E0DAF2D9801AE01FF900F91EF
S1131B101F91CF91DF910E94B40B0C94050D0E948C
S1131B20F70C38F00E94FE0C20F0952311F00C9471
S1131B30EE0C0C94F40C11240C94390D0E94160D27
S1131B4070F3959FC1F3950F50E0551F629FF0010C
S1131B50729FBB27F00DB11D639FAA27F00DB11D25
S1131B60AA1F649F6627B00DA11D661F829F2227AE
S1131B70B00DA11D621F739FB00DA11D621F839F35
S1131B80A00D611D221F749F3327A00D611D231F0B
S1131B90849F600D211D822F762F6A2F11249F5759
S1131BA050409AF0F1F088234AF0EE0FFF1FBB1F5C
S1131BB0661F771F881F91505040A9F79E3F51051B
S1131BC080F00C94EE0C0C94390D5F3FE4F3983ED6
S1131BD0D4F3869577956795B795F795E7959F5FC5
S1131BE0C1F7FE2B880F911D9695879597F9089557
S1131BF09F3F31F0915020F4879577956795B7957D
S1131C00880F911D9695879597F90895DF93CF9343
S1131C101F930F93FF92EF92DF927B018C016894E4
S1131C2006C0DA2EEF010E949E0DFE01E894A591F4
S1131C302591359145915591A6F3EF010E94B40B7E
S1131C40FE019701A801DA9469F7DF90EF90FF9005
S1131C500F911F91CF91DF910895EF920F931F93EE
S1131C60CF93DF93E80147FD02C034E001C034E1C3
S1131C70042E000C550B57FF03C051954195510993
S1131C80E32E022F242FAE010E945710CE01DF91C4
S1131C90CF911F910F91EF900895FB01DC0101900A
S1131CA00D920020E1F70895AEE0B0E0EAE5FEE031
S1131CB00C9476130D891E8986E08C831A8309831C
S1131CC08FEF9FE79E838D83AE01475E5F4F6F89E1
S1131CD0788DCE0101960E94760EEF81F885E00F93
S1131CE0F11F10822E96E4E00C949213ABE0B0E066
S1131CF0ECE7FEE00C9468136C017B018A01FC01A3
S1131D0017821682838181FFCCC1CE0101963C01EA
S1131D10F6019381F70193FD859193FF81917F01F2
S1131D20882309F4BAC1853239F493FD859193FF70
S1131D3081917F01853229F4B60190E00E949F12BF
S1131D40E7CF912C212C312CFFE1F315D8F08B3205
S1131D5079F038F4803279F08332A1F4232D2061B4
S1131D601DC08D3261F0803369F4232D216016C0CB
S1131D70832D8260382EE32DE4603E2E2AC0F32D9D
S1131D80F8601DC037FC2DC020ED280F2A3040F02C
S1131D908E32B9F436FC81C1232D2064322E19C051
S1131DA036FE06C08AE0989E200D1124922E11C0A2
S1131DB0EAE02E9E200D1124222EF32DF0623F2EF8
S1131DC008C08C3621F4832D8068382E02C08836F2
S1131DD041F4F70193FD859193FF81917F01811176
S1131DE0B3CF982F9F7D9554933028F40C5F1F4FE9
S1131DF09FE399830DC0833631F0833771F08335C7
S1131E0009F059C021C0F801808189830E5F1F4FFA
S1131E1088248394912C530113C02801F2E04F0EBF
S1131E20511CF801A080B18036FE03C0692D70E01A
S1131E3002C06FEF7FEFC5010E9494124C01820132
S1131E40F32DFF773F2E16C0280122E0420E511CCD
S1131E50F801A080B18036FE03C0692D70E002C095
S1131E606FEF7FEFC5010E9489124C01F32DF068DA
S1131E703F2E820133FC1BC0822D90E08816990608
S1131E80B0F4B60180E290E00E949F122A94F4CF4D
S1131E90F50137FC859137FE81915F01B60190E031
S1131EA00E949F1221102A9421E0821A9108811421
S1131EB0910471F7E8C0843611F0893641F5F801D0
S1131EC037FE07C060817181828193810C5F1F4F4F
S1131ED008C060817181072E000C880B990B0E5F7E
S1131EE01F4FF32DFF763F2E97FF09C090958095E5
S1131EF0709561957F4F8F4F9F4FF0683F2E2AE07A
S1131F0030E0A3010E94DB12882E861845C0853775
S1131F1031F4232D2F7EB22E2AE030E025C0932DFC
S1131F20997FB92E8F36C1F018F4883579F0B5C091
S1131F30803719F0883721F0B0C0E92FE061BE2E58
S1131F40B4FE0DC0FB2DF460BF2E09C034FE0AC0E0
S1131F50292F2660B22E06C028E030E005C020E11B
S1131F6030E002C020E132E0F801B7FE07C0608132
S1131F707181828193810C5F1F4F06C060817181E2
S1131F8080E090E00E5F1F4FA3010E94DB12882EB9
S1131F908618FB2DFF773F2E36FE0DC0232D2E7F96
S1131FA0A22E891458F434FE0BC032FC09C0832DD0
S1131FB08E7EA82E05C0B82CA32C03C0B82C01C05B
S1131FC0B92CA4FE0FC0FE01E80DF11D8081803301
S1131FD021F49A2D997EA92E09C0A2FE06C0B394BD
S1131FE0B39404C08A2D867809F0B394A3FC11C07D
S1131FF0A0FE06C0B21488F4280C922C9B180EC0C4
S1132000B21460F4B60180E290E00E949F12B3948F
S1132010F7CFB21418F42B1802C0982C212CA4FE6C
S113202010C0B60180E390E00E949F12A2FE17C088
S1132030A1FC03C088E790E002C088E590E0B60107
S11320400CC08A2D867859F0A1FE02C08BE201C033
S113205080E2A7FC8DE2B60190E00E949F128914F1
S113206038F4B60180E390E00E949F129A94F7CF6F
S11320708A94F301E80DF11D8081B60190E00E947D
S11320809F128110F5CF222009F442CEB60180E2DE
S113209090E00E949F122A94F6CFF60186819781E0
S11320A002C08FEF9FEF2B96E2E10C948413A9E01A
S11320B0B0E0EDE5F0E10C946E136A01122FB02E3E
S11320C02BE3201720F0FF24F394F00E02C02CE33E
S11320D0F22E0F2D27E0AE014F5F5F4F0E94B1112A
S11320E0BC014981842F8970813031F0E1FC06C044
S11320F0E0FE06C090E205C09DE203C09BE201C081
S113210090E05E2D507143FF3CC0911102C083E00A
S113211001C084E0811718F4212F281B01C020E09E
S113212051110BC0F601822F30E2882319F031934C
S11321308150FBCFC20ED11C20E0992329F0D60197
S11321409C93F60131966F01C6010396E2FE0AC024
S11321503EE4D6013C9341E411964C9311971296B8
S11321603C9306C03EE6F601308341E64183328368
S1132170FC01322F40E2332309F442C04193315031
S1132180FACF42FF44C0911102C083E001C084E051
S1132190811718F4212F281B01C020E051110BC016
S11321A0F601822F30E2882319F031938150FBCF5E
S11321B0C20ED11C20E0992329F0D6019C93F6018C
S11321C031966F01C6010396E2FE0BC039E4D601D5
S11321D03C933EE411963C93119736E412963C935B
S11321E007C039E6F60130833EE6318336E63283B2
S11321F0FC01322F40E2332319F041933150FBCFDD
S1132200FC01E20FF11D10828EEF9FEFA6C021E0CA
S113221030E0911102C020E030E0161617061CF4DD
S1132220FB01319602C0E1E0F0E02E0F3F1FBB201E
S113223021F0EB2DF0E0319602C0E0E0F0E02E0F4B
S11322403F1FE12FF0E02E173F071CF4121B212F34
S113225001C020E08E2D887159F4F601822F30E2FE
S1132260882319F031938150FBCFC20ED11C20E09A
S1132270992329F0D6019C93F60131966F015111EF
S11322800BC0F601822F90E3882319F091938150BB
S1132290FBCFC20ED11C20E00F2D060F9A81342FE4
S11322A0307144FF03C0913309F40150101624F433
S11322B0093018F008E001C001E0AB0177FF02C06B
S11322C040E050E0FB01E41BF50BA1E0B0E0AC0FF3
S11322D0BD1FEA0FFB1F8EE2A82E4B01801A910846
S11322E00B2D10E01195019511094F3FBFEF5B07CE
S11322F021F4D601AC9211966D01641775072CF088
S11323008416950614F4818101C080E3415051097B
S11323103196D60111967D014017510724F0D6015C
S11323208C936701E2CF6417750739F4963320F470
S1132330953319F4311101C081E3F6018083F7016B
S1132340822F90E2882319F091938150FBCFF701FB
S1132350E20FF11D108280E090E02996ECE00C94ED
S11323608A13283008F027E03327DA01990F311D4A
S113237087FD916000966105710539F432602E5F26
S11323803D9330E32A95E1F708959F3F30F080387C
S11323907105610509F03C5F3C5F3D93913008F0A5
S11323A08068911DDF93CF931F930F93FF92EF9259
S11323B0192F987F9695E92F96959695E90FFF2703
S11323C0EA5DFE4F99273327EE24FF24A701E70196
S11323D005900894079428F4360FE71EF81E491F49
S11323E0511D660F771F881F991F0694A1F705904A
S11323F0079428F4E70EF81E491F561FC11D770FD6
S1132400881F991F661F0694A1F70590079428F466
S1132410F80E491F561FC71FD11D880F991F661F2D
S1132420771F0694A1F70590079420F4490F561FCF
S1132430C71FD81F990F661F771F881F0694A9F717
S113244084911095177041F0D695C7955795479587
S1132450F794E7941A95C1F7ECECF0E068941590C2
S1132460159135916591959105907FE27395E118E9
S1132470F10A430B560BC90BD009C0F7E10CF11E4E
S1132480431F561FC91FD01D7EF4703311F48A9563
S1132490E6CFE894015030F0080F0AF40027021741
S11324A008F4202F2395022F7A3328F079E37D93C3
S11324B02A95E9F710C07D932A9589F60694979595
S11324C06795379517951794E118F10A430B560B46
S11324D0C90BD00998F023957E9173957A3308F04F
S11324E070E37C932013B8F77E9170617D9330F094
S11324F0839571E37D9370E32A95E1F71124EF90BE
S1132500FF900F911F91CF91DF91992787FD9095AF
S11325100895FC010590615070400110D8F7809532
S113252090958E0F9F1F0895FC016150704001909B
S11325300110D8F7809590958E0F9F1F08950F93E3
S11325401F93CF93DF93FB01238121FD03C08FEF02
S11325509FEF2CC022FF16C046815781248135810C
S11325604217530744F4A081B1819D012F5F3F4F6F
S1132570318320838C93268137812F5F3F4F3783AC
S1132580268314C08B01EC01FB010084F185E02D4E
S11325900995892BE1F6D80116968D919C91179790
S11325A0019617969C938E931697CE01DF91CF9147
S11325B01F910F910895FA01AA27283051F1203173
S11325C081F1E8946F936E7F6E5F7F4F8F4F9F4FC3
S11325D0AF4FB1E03ED0B4E03CD0670F781F891F05
S11325E09A1FA11D680F791F8A1F911DA11D6A0FD3
S11325F0711D811D911DA11D20D009F468943F9186
S11326002AE0269F11243019305D3193DEF6CF0184
S11326100895462F4770405D4193B3E00FD0C9F74A
S1132620F6CF462F4F70405D4A3318F0495D31FDB7
S11326304052419302D0A9F7EACFB4E0A69597950A
S1132640879577956795BA95C9F7009761057105E0
S113265008959B01AC010A2E06945795479537952A
S11326602795BA95C9F7620F731F841F951FA01D84
S11326700895DC01CB01FC01E199FECF06C0FFBB4C
S1132680EEBBE09A31960DB20D9241505040B8F72E
S11326900895E199FECF9FBB8EBBE09A99278DB335
S11326A00895A8E1B0E042E050E00C943B13262FDB
S11326B0E199FECF9FBB8EBBE09A01970DB2021643
S11326C031F02DBB0FB6F894E29AE19A0FBE08954B
S11326D02F923F924F925F926F927F928F929F922E
S11326E0AF92BF92CF92DF92EF92FF920F931F931C
S11326F0CF93DF93CDB7DEB7CA1BDB0B0FB6F894CD
S1132700DEBF0FBECDBF09942A88398848885F840C
S11327106E847D848C849B84AA84B984C884DF807D
S1132720EE80FD800C811B81AA81B981CE0FD11D61
S11327300FB6F894DEBF0FBECDBFED010895F89437
S1052740FFCFC5
S1132742011041444D2D496E69740A004553522DBE
S1132752496E69740A004C4D50532D496E69740ACE
S113276200544C50532D496E69740A004C43442D55
S1132772496E69740A004C45442D496E69740A0015
S11327824144432D496E69740A000A456C656374B9
S1132792726F6E696320436C696D6174652053794D
S11327A27374656D202D2054656D7072610A0A0080
S11327B24B5950442D496E69740A0054454D502DAD
S11327C20053504545442D0053504545442B004584
S11327D258540052454349004F46460046524E540F
S11327E22B464545540046524E5400574E445348D6
S11327F20054454D502B0045434F004155544F0062
S11328024B5950442D54736B2E205B307825303253
S1132812585D3A2025730A004B65797061645F54F0
S113282261736B0054656D7053656E736F72735F81
S11328325461736B00456C656353706565645265DE
S1132842675F5461736B00416972446973744D6FBD
S1132852746F725F5461736B0045787465726E5461
S1132862656D705F5461736B0055537C25647C25E0
S1132872647C25647C25647C25647C25647C2564D5
S11328827C25647C0A004F537C25737C25647C255B
S1132892647C25647C25647C25647C0A0054534B47
S11328A22D496E69740A0054534B2D437274643A71
S11328B22049643A3A25643A3A25732E20547970B1
S11328C23A2025642E2053746174733A2025642EB1
S11328D2204164647273733A2025700A00544D5285
S10B28E22D496E69740A0A0015
S9030000FC
